:020000040000FA
:06000000F26A0BEF1BF099
:020006000000F8
:08000800E9CFDCFFEACFDCFFC9
:100010009EAA02D0FAEF17F09EAC02D093EF18F030
:100020009EB202D000EF00F09E92C2823A503B1086
:100030003C10D8B40AD0010E3A5E000E3B5A3C5A2E
:100040003A503B103C10D8B41284402E09D01E0EFA
:10005000406E392E05D01276375012A63850396EC0
:100060000E0E4206D8A0426E365012A636380F0B3E
:10007000425CD8A002D08B9401D08B84412E0BD04F
:100080003C0E416E3D52D8A43D063E52D8A43E06D9
:100090003F52D8A43F06DDCFEAFFDDCFE9FF1100D4
:1000A00001019E0E0E6F010E0F6F000E106F010EFC
:1000B0000D6F120000C008F101C009F102C00AF181
:1000C00003C00BF108C00CF1FC041F0B016E010111
:1000D0000D6F01EE0EF0FDCFEEFFFECFEEFFFFCF76
:1000E000EEFF0600012EF7D7120001C0DCFFDDCFC6
:1000F00001F0E0DF01C0DCFF13A006D0016AB0EC24
:100100000CF001B0F4D704D012AEF1D727EC18F000
:10011000ACEC19F0DDCF01F0120001C0DCFF13A040
:100120000BD0016AB3EC0CF001A008D0DDCF01F0D8
:10013000C1DF01C0DCFFF5D739EC18F0DDCF01F0ED
:10014000120012B41200B6DF96EC19F0FAD7B2DF43
:1001500012B8FDD71288128A1200010101EE0DF0CB
:100160000D51016E030DF350E926014E08D0050034
:10017000ED50FF6EED50FE6EED50FD6EF6D708C1EE
:1001800000F009C101F00AC102F00BC103F00CC17B
:1001900008F01051FB6E0F51FA6E0E51F96E13906C
:1001A000138288DF12AE03D027EC18F007D0016A63
:1001B000B0EC0CF001B0F5D7138013920050016E33
:1001C0005908D8A0ECD719D802500310D8B4E7D7F3
:1001D00013A208D000C0DCFF010E006E8DEC00F011
:1001E000DDCF00F0260E0226020E0320FA6E000E6E
:1001F000FB6E000EFB220250F96E036AD8900134A8
:10020000026E0336260E0224F66E020E0320F76EEF
:10021000000EF86E000EF8220900F5CF02F009007A
:10022000F5CF03F012000000B400B8000000C400D5
:10023000E000BA01D6017A02860292029E02AA0268
:10024000BA02D002F00200000000320300003E03B8
:100250004A0356036203C403800394030000D203DD
:100260004404E604080414041E04FA0302046C05A2
:10027000600438042603A0036E0600009A060000FE
:10028000AE0600000000BE06FA060000F2080C01EF
:100290004201FA012602FE050000A00408070E052F
:1002A000000038072C075C07000070079E07C8078E
:1002B0007C040000CA08DE08CA07DE07F207060849
:1002C0001A082E08420856086A087E089208AA08EA
:1002D00000000000820192015A02CFEF00F0A1EC71
:1002E00000F073EC0DF0CFEF00F075EC00F0005073
:1002F000070B010F086E75EC00F0A1EC00F0B3ECF9
:1003000011F0CFEF00F075EC00F000500F0B010F73
:10031000086E75EC00F000C002F075EC00F000C053
:1003200001F002C000F0A1EC00F0B3EC11F0CFEF4F
:1003300000F075EC00F000501F0B010F086E75EC1B
:1003400000F000C003F075EC00F000C001F075ECA7
:1003500000F000C002F003C000F0036AA1EC00F05E
:10036000B3EC11F0CFEF00F075EC00F000501F0B74
:10037000010F086E75EC00F000C003F075EC00F0A2
:1003800000C001F075EC00F000C002F075EC00F068
:1003900000C004F003C000F004C003F0A1EC00F0C2
:1003A000B3EC11F0CFEF00F075EC00F0A1EC00F031
:1003B00055EC12F0CFEF00F075EC00F000C003F048
:1003C00075EC00F000C001F075EC00F000C002F028
:1003D00003C000F0A1EC00F07AEC12F0CFEF00F0D7
:1003E00075EC00F00050070B010F086EA1EC00F057
:1003F0001DEC12F08DEC00F0CFEF00F075EC00F08A
:1004000000500F0B010F086EA1EC00F01DEC12F074
:100410008DEC00F001C000F08DEC00F0CFEF00F0AB
:1004200075EC00F000501F0B010F086EA1EC00F0FE
:100430001DEC12F08DEC00F001C000F08DEC00F02E
:1004400002C000F08DEC00F0CFEF00F075EC00F092
:1004500000501F0B010F086EA1EC00F01DEC12F014
:100460008DEC00F001C000F08DEC00F002C000F057
:100470008DEC00F003C000F08DEC00F0CFEF00F049
:10048000A1EC00F0E6EC12F08DEC00F001C000F001
:100490008DEC00F002C000F08DEC00F0CFEF00F02A
:1004A000A1EC00F096EC11F0CFEF00F0A1EC00F021
:1004B00093EC11F0CFEF00F0A1EC00F09EEC11F006
:1004C000CFEF00F0A1EC00F09BEC11F0CFEF00F0CB
:1004D000A1EC00F0A3EC11F08DEC00F0CFEF00F0F8
:1004E000A1EC00F077EC11F0006A13BC00808DECF9
:1004F00000F0CFEF00F075EC00F000C001F075ECFB
:1005000000F0A1EC00F001C043F000C044F041EC69
:1005100019F0CFEF00F0010E006E8DEC00F01A0E16
:10052000006E8DEC00F01D0E006E8DEC00F0120ED2
:10053000006E8DEC00F0006A8DEC00F08DEC00F0A8
:100540008DEC00F08DEC00F0CFEF00F0030E006EAC
:100550008DEC00F0CFEF00F0A1EC00F051EC1AF0C0
:10056000CFEF00F0A1EC00F02BEC1AF0CFEF00F091
:10057000A1EC00F0F6EC1BF0CFEF00F0A1EC00F0E6
:10058000F2EC1BF0CFEF00F075EC00F0139E00BE14
:10059000138E009E00501C6E2C6A2D6A2E6A0BEC86
:1005A0000DF0CFEF00F075EC00F000C01DF0010E73
:1005B000226E1AEC1AF0CFEF00F075EC00F000C0DC
:1005C0001EF0CFEF00F075EC00F000C001F075EC0C
:1005D00000F000C002F075EC00F001C02CF002C089
:1005E0002DF000C02EF0CFEF00F01498A1EC00F039
:1005F00092EC0DF0CFEF00F075EC00F000C001F0D0
:1006000075EC00F000C002F075EC00F001C026F0BF
:1006100002C027F000C028F0EBEC0EF0CFEF00F0A6
:1006200087EC0DF0CFEF00F0149ACFEF00F075ECEF
:1006300000F000501F6ECFEF00F014A8CFEF00F0D5
:10064000149804D014B8CFEF00F01488261C296E3B
:10065000271C2A6E281C2B6E149ACFEF00F0A1ECF9
:1006600000F0AFEC19F0CFEF00F0A1EC00F027ECB8
:100670000FF08DEC00F001C000F08DEC00F087EC85
:100680000DF0CFEF00F0A1EC00F0080E026E27ECA9
:100690000FF08DEC00F087EC0DF0022EF8D7CFEFC5
:1006A00000F0A1EC00F0400E026E27EC0FF08DEC94
:1006B00000F001C000F08DEC00F087EC0DF0022E90
:1006C000F4D7CFEF00F0FC0E2616DDEC07F03CEC83
:1006D00008F08DEC00F001C000F08DEC00F002C0DD
:1006E00000F08DEC00F003C000F08DEC00F004C0D1
:1006F00000F08DEC00F005C000F08DEC00F0040E71
:100700002626000E27222822CFEF00F075EC00F0FD
:1007100000C002F075EC00F000C001F002C000F073
:10072000AFEC19F0A1EC00F05FEC0FF087EC0DF0EE
:10073000CFEF00F0AFEC19F0080E086E1A0E026E43
:10074000010E036E75EC00F002C0E9FF03C0EAFF82
:1007500000C0EFFF022AD8B0032A082EF3D70168A1
:10076000080E086E1A0E026E010E036E02C0E9FF3B
:1007700003C0EAFFEFCF00F0022AD8B0032AA1ECB1
:1007800000F05FEC0FF087EC0DF0082EEFD7CFEF05
:1007900000F0AFEC19F0A1EC00F0F9EC13F0030E4F
:1007A000036E75EC00F00050026E75EC00F0005026
:1007B000016E0D0E0352D8B40F0E006E040E086EBB
:1007C000B3EC11F00250006E100E086EB3EC11F095
:1007D000030603AEE6D7006A030E086EB3EC11F011
:1007E00096EC11F0070E436E446A456A41EC19F02D
:1007F000080E2626D8B0272AD8B4282A149AA1ECA5
:1008000000F093EC11F0010E436E446A41EC19F0D4
:10081000A5EC19F0006A016A100E086EB3EC11F035
:10082000CFEF00F0AFEC19F0F80E261675EC00F0E3
:1008300000C001F075EC00F000C002F075EC00F0B3
:10084000A1EC00F091EC09F075EC00F000C001F0B3
:1008500075EC00F000C002F075EC00F0A4EC09F0BB
:1008600075EC00F000C001F075EC00F000C002F083
:1008700075EC00F0DBEC09F075EC00F000C001F065
:1008800075EC00F000C002F075EC00F0E3EC09F04C
:10089000CFEF00F075EC00F0046A0050016E5908CB
:1008A000D8A008D0FDEC00F002500310D8B402D05C
:1008B000010E046E04C000F08DEC00F0CFEF00F0EC
:1008C0009FEC18F08DEC00F001C000F08DEC00F012
:1008D000CFEF00F0A1EC00F046C000F08DEC00F08E
:1008E000CFEF00F075EC00F0A1EC00F053EC0DF050
:1008F000A1EC00F0A1EC11F099EC11F0EFEC1BF081
:10090000A1EC00F0005003E11BEC1AF004D0FA084F
:10091000FA0ED8A0006EA1EC00F01580CFEF00F029
:10092000A1EC00F073EC0DF01580CFEF00F075EC4A
:1009300000F000C001F075EC00F000C002F075ECB2
:1009400000F001C02FF002C030F000C031F0CFEF56
:1009500000F075EC00F000C022F0CFEF00F075EC75
:1009600000F00050026E75EC00F00050016E75EC66
:1009700000F00250236E0150246E0050256ECFEF20
:1009800000F0830E006E8DEC00F0060E006E8DEC14
:1009900000F0CFEF00F0A7EC00F094EC1AF075EC4B
:1009A00000F000C001F00152D8B406D0010675EC89
:1009B00000F0A5EC1AF0F7D7ADEC1AF0129A1298E5
:1009C000CFEF00F0A7EC00F075EC1AF08DEC00F022
:1009D00000C001F00152D8B406D001068AEC1AF02A
:1009E0008DEC00F0F7D7129A1298CFEF00F0FF00CD
:1009F00075EC00F000C022F175EC00F000C023F1AE
:100A0000CFEF00F075EC00F000C024F175EC00F0C1
:100A100000C025F1CFEF00F075EC00F000C026F12A
:100A200075EC00F000C027F1CFEF00F075EC00F09E
:100A300000C028F175EC00F000C029F1CFEF00F004
:100A400075EC00F000C02AF175EC00F000C02BF14D
:100A5000CFEF00F075EC00F000C02CF175EC00F069
:100A600000C02DF1CFEF00F075EC00F000C02EF1CA
:100A700075EC00F000C02FF1CFEF00F075EC00F046
:100A800000C030F175EC00F000C031F1CFEF00F0A4
:100A900075EC00F000C032F175EC00F000C033F1ED
:100AA000CFEF00F075EC00F000C034F175EC00F011
:100AB00000C035F1CFEF00F075EC00F000C001F0A0
:100AC00075EC00F001C020F000C021F0CFEF00F085
:100AD0008E0E006E8DEC00F05B0E006E8DEC00F063
:100AE000006A8DEC00F0006A8DEC00F0CFEF00F0B2
:100AF000A7EC00F0B1EC1BF08DEC00F0129A12980C
:100B0000CFEF00F075EC00F0A7EC00F0C1EC1BF0AB
:100B1000129A1298CFEF00F075EC00F000C001F0CF
:100B200075EC00F00150040838E3000EFB6EFA6A21
:100B3000D8900136FA360136FA364A0E01260B0EE7
:100B4000FA22000EFB220150F96EAFEF05F0B5EF6F
:100B500005F0BBEF05F0C1EF05F0C7EF05F00A0E99
:100B6000016E380E026E000E1ED00D0E016E380E94
:100B7000026E000E18D0260E016E380E026E000EA8
:100B800012D01C0E016E380E026E000E0CD0360E06
:100B9000016E380E026E000E06D0000E006E8DEC57
:100BA00000F0CFEF00F0F86E02C0F7FF01C0F6FFD3
:100BB00009000050F55ED8A0F0D7F626000EF72207
:0A0BC000F8220800F5CF00F0EAD794
:060BCA00010E326E400E28
:100BD000336E080E346E400E356E0101010E3A6F11
:100BE000120003C0DCFF08C0DCFF01013A2F2DD04A
:100BF00000C0DCFF01C0DCFF02C0DCFF1C0E086E81
:100C0000006A016A026A036AB3EC11F0B3EC11F0F6
:100C1000006A100E016E400E026E036A200E13B8B9
:100C2000016EB3EC11F0006A016A026A036AB3EC68
:100C300011F013AA04D0B3EC11F0B3EC11F0DDCF36
:100C400002F0DDCF01F0DDCF00F000C0DCFF01C01D
:100C5000DCFF02C0DCFF036AD890003601360236A2
:100C600003360036013602360336003601360236C8
:100C7000033600360136023603361C0E086EB3EC1E
:100C800011F0DDCF02F0DDCF01F0DDCF00F0DDCFE0
:100C900008F0DDCF03F0120000C0DCFF01C0DCFF74
:100CA00002C0DCFF006A016A026A9BDFDDCF02F04E
:100CB000DDCF01F0DDCF00F0120013AA01D0ECDF90
:100CC000120013AA03D0E8DFE7DFE6DF120002C05C
:100CD000DCFF03C0DCFF08C0DCFFDEDF010E006EBE
:100CE000016A0C0E086EB3EC11F0100E086E1DECCC
:100CF00012F0E3DFDDCF08F0DDCF03F0DDCF02F04F
:100D00001200020E1CD0120E1AD0220E18D0320E73
:100D100016D0420E14D0520E12D0620E10D0720EA7
:100D20000ED0820E0CD0920E0AD0A20E08D0B20EB7
:100D300006D0C20E04D0D20E02D0E20E00D000C007
:100D4000DCFF01C0DCFF02C0DCFF026E02340036B3
:100D500001360236023400360136023602340036DD
:100D60000136023602340036013602363ADFDDCF74
:100D700002F0DDCF01F0DDCF00F01200000E1ED03A
:100D8000010E1CD0020E1AD0030E18D0040E16D07D
:100D9000050E14D0060E12D0070E10D0080E0ED07D
:100DA000090E0CD00A0E0AD00B0E08D00C0E06D07D
:100DB0000D0E04D00E0E02D00F0E00D000C0DCFFCE
:100DC00001C0DCFF02C0DCFFEECF00F0EDCF01F090
:100DD0000090026AD890003601360236003601369D
:100DE00002360036013602360012880E0212F9DE93
:100DF000DDCF02F0DDCF01F0DDCF00F01200000EFC
:100E00001ED0010E1CD0020E1AD0030E18D0040EF4
:100E100016D0050E14D0060E12D0070E10D0080EF4
:100E20000ED0090E0CD00A0E0AD00B0E08D00C0EF4
:100E300006D00D0E04D00E0E02D00F0E00D000C052
:100E4000DCFF01C0DCFF02C0DCFFEECF00F0EDCF25
:100E500001F00090026AD890003601360236003662
:100E6000013602360036013602360012800E0212BA
:100E7000B8DEDDCF02F0DDCF01F0DDCF00F01200F3
:100E800001EE2CF097DF08DF120001013A51F00B60
:100E9000010ED8B43A6F120000C0DCFF01C0DCFFC5
:100EA0000A0E006E016A3BDF34C000F035C001F06D
:100EB00038DF040E006E400E016E35DF32C000F0E8
:100EC00033C001F032DF550E006E016A30DFAA0E2A
:100ED000006E016A2EDF006A016A2DDF006A016A76
:100EE0002CDFCEDF296A2A6A2B6ADDCF01F0DDCF45
:100EF00000F0120000C0DCFF01C0DCFF02C0DCFF1C
:100F000026502918006E27502A18001228502B1836
:100F100000101FE014B80CD028502B6E006E016A30
:100F20000CDF2650296E006E27502A6E016E0ED0FF
:100F30007F0E006E016A01DFD8902634006E2734E0
:100F4000016E2F500026305001220112F4DE98DF8E
:100F5000B4DEDDCF02F0DDCF01F0DDCF00F0120016
:100F600001013A69149EA5EC19F013B80BD094DE78
:100F700093DE006A010E016E040E026EF1EC05F0C4
:100F80008BDE16D0006A016A026A036A050E086EDB
:100F9000B3EC11F081DE91DE90DE006A020E016E8C
:100FA000040E026EF1EC05F077DE76DE86DE85DE7D
:100FB00001013A6971DF11EF0EF000C0DCFF01C0E2
:100FC000DCFF2650006EFC0B266E01013B6F27C034
:100FD0003CF128C03DF18EDF00C026F09D0E006E72
:100FE000DB0E016EBA0E026EF1EC05F055DE54DE3A
:100FF00068DEBD0E006E016ABA0E026EF1EC05F0FD
:101000004BDE4ADE5EDE9D0E006ED30E016EBA0E22
:10101000026EF1EC05F040DE3FDE53DE3D0E006E69
:10102000010E016EBA0E026EF1EC05F035DE34DE13
:1010300048DE01EE2AF0A4DE4ADE00C03EF101C027
:101040003FF101EE2AF09EDE42DE00C041F101C018
:1010500042F101EE2AF09CDE3ADE00C040F101C010
:1010600043F12950040F296E000E2A22148EDDCF81
:1010700001F0DDCF00F012003EC100F03FC101F0F1
:1010800040C102F041C103F042C104F043C105F088
:10109000120014B821D014AE0CD02650FC0B006EF8
:1010A00001013B1906E127503C1903E128503D1985
:1010B00001E083DF2650030B01EE3FF0E8B201EEC2
:1010C00042F0E8B005D0EDCF01F0EFCF00F01AD03C
:1010D000ECCF00F0016A16D00DDF2628296E000E35
:1010E00027200F0B2A6E2B6ABD0E006E016ABA0E06
:1010F000026EF1EC05F0D0DDCFDDE3DD01EE2AF08C
:101100003FDEE5DD58EF0FF0FA0E006E016AF9DD03
:1011100001EE2CF033DE006A016AF3DDBDDD370E2F
:10112000006EC80E016EBB0E026EF1EC05F0B4DD70
:10113000B3DD010E006E180E016EBB0E026EF1ECF7
:1011400005F0AADDA9DD270E006EC80E016EBB0EEC
:10115000026EF1EC05F0A0DD9FDD020E006E180EB0
:10116000016EBB0E026EF1EC05F096DD95DD0068B8
:101170000168C7DD01EE2AF001DE01EE32F018DE73
:1011800001EE34F017DE01EE2EF00CDE85DD84DD9D
:1011900001EE30F009DE80DD01EE30F007DE290ED1
:1011A000006EE70E016EA80E026EF1EC05F074DD24
:1011B00073DD72DD71DD70DDCD6A0F0E006E016AC8
:1011C0002050005E2150015A02E20068016801C00F
:1011D000CFFF00C0CEFF9E90CD80040E2926000ECA
:1011E0002A22040E2626000E272228229EA0FED7A1
:1011F00053DD01EE2EF003DE4FDD01EE2AF0BEDD01
:1012000066DDF00E00168F0E01140010F1E14D0E98
:10121000006E016AB00E026EF1EC05F0120035DED0
:10122000149E13B80FD03B0E006E016E880E026E36
:10123000F1EC05F03C0E006E3B0E016E880E026E66
:10124000F1EC05F0610E006EE70E016EA80E026E65
:10125000F1EC05F021DD20DD1FDD1EDD1F50436EAA
:10126000446A456AA5EC19F013B80BD0610E006E04
:10127000E70E016EA90E026EF1EC05F00DDD0CDD3E
:1012800014D00ADD006A3B0E016E800E026EF1EC96
:1012900005F0200E006E3C0E016E880E026EF1EC21
:1012A00005F0FADC14DD01BEECD71200149E14B870
:1012B0001DD026B034D02B6A1DDE23DD080E006E53
:1012C0003B0E016E880E026EF1EC05F0800E006E92
:1012D0001E0E016EBB0E026EF1EC05F0DDDCDCDCF7
:1012E0009EDF020E2926000E2A2219D003DE09DD18
:1012F000090E006E3B0E016E880E026EF1EC05F0D9
:10130000800E006E1E0E016EBB0E026EF1EC05F03B
:10131000C3DCC2DC84DF010E2926000E2A22A8EFDE
:101320000FF0E8DD00C003F001C000F002C001F0E2
:10133000EADC13BA08D02204261405E101EE2CF0F1
:1013400039DDAADCA9DC120000C004F001C000F005
:1013500002C001F0DADC03C000F004C001F0DBDC05
:1013600013BAD2D6B70E006ECE0E016EBB0E026E51
:10137000F1EC05F091DC90DC810E006E1E0E016E2A
:10138000BB0E026EF1EC05F087DC86DCA70E006E6A
:10139000CE0E016EBB0E026EF1EC05F07DDC7CDC46
:1013A000820E006E1E0E016EBB0E026EF1EC05F099
:1013B00073DC72DC120000C003F001C000F002C058
:1013C00001F0A1DC120013BABFD700C004F001C0C5
:1013D00000F002C001F099DC03C000F004C001F08D
:1013E0009ADCB70E006ECE0E016EBB0E026EF1ECF3
:1013F00005F052DC51DC810E006E1E0E016EBB0E3C
:10140000026EF1EC05F048DC47DCA70E006ECE0E54
:10141000016EBB0E026EF1EC05F03EDC3DDC820E8F
:10142000006E1E0E016EBB0E026EF1EC05F034DC98
:1014300033DC080E2626000E27222822080E292635
:10144000000E2A222204261404E101EE2EF0AADC6A
:04145000E6DE1200C2
:0C14540020042E043B044904FFFFFFFFAE
:10146000FFFFFFFFFFFFFFFFFFFFFFFFFFFFFFFF8C
:10147000FFFFFFFFFFFFFFFFFFFFFFFFFFFFFFFF7C
:10148000FFFFFFFFFFFFFFFFFFFFFFFFFFFFFFFF6C
:10149000FFFFFFFF4A686D6A160E6F6E6B6811984A
:1014A000120000C0DCFF01C0DCFF02C0DCFF03C093
:1014B000DCFF79D86D86730E006E010E016EF80E9A
:1014C000026E140E036EBEEC15F027EC16F0DDCFA5
:1014D00003F0DDCF02F0DDCF01F0DDCF00F0120030
:1014E0004AC000F09BEC16F011AA02D093EC1AF05F
:1014F0004A686D6A1198120047C04AF027EC16F04E
:1015000044DA11B0FBD727EC16F0FBEC0FF0F6D75E
:1015100000C0DCFFEFA644D0040EEBCF00F0050EB8
:10152000EB500010D8A43CD0010EEBCFE1FF000E31
:10153000EFB4040FE126040EE26EEF9CE7503C0B83
:10154000340AD8B4EF8CEF9AE650030B006E050E08
:1015500000C0EBFF040EE7CFEBFFE6500010D8B45D
:10156000EF8AE650EF34060B090FEBCFE5FFFF0FD4
:10157000EBCFE5FF020EEBCFE5FF030EEB50E76E7E
:10158000E78E010EEFB0030EEFB2020EEF1AEF96E8
:10159000EFB8EF86EF98EF74060EEB6A010FEB6A77
:1015A000DDCF00F0120000C0DCFF01C0DCFF1198AD
:1015B0001186706A716A726A736A746A756A766A89
:1015C000776A786A796A7A6A7B6A7C6A7D6A7E6AF7
:1015D0007F6A04EE00F0200E006EEE6A002EFDD74A
:1015E0000401380E206F000E216F080E226F236B4E
:1015F000246B256B560E286F040E296F5E0E2A6F22
:10160000040E2B6F660E2C6F040E2D6F180E2E6FAE
:101610002F6B080E306F080E316F326B336B346BEB
:101620006E0E356F040E366F760E376F040E386F00
:101630007E0E396F040E3A6F380E3B6F100E3C6F02
:10164000400E3D6F3E6B3F6B406B860E436F040E4A
:10165000446FC60E456F040E466F060E476F050EAB
:10166000486F180E496F020E4A6F180E4B6F400EEE
:101670004C6F4D6B4E6B4F6B460E506F050E516F9E
:10168000860E526F050E536FC60E546F050E556FC2
:1016900004EE20F03DDF3CDF6E6A686A696A6D8C9B
:1016A000E90E6D166D866D9C68A602D06896FCD713
:1016B000160E706E1182DDCF01F0DDCF00F012004A
:1016C0000401380E3B6F100E3C6F400E3D6F3E6BB9
:1016D0003F6B406B860E436F040E446FC60E456F22
:1016E000040E466F060E476F050E486F180E496FC1
:1016F000020E4A6F180E4B6F400E4C6F4D6B4E6BC7
:101700004F6B460E506F050E516F860E526F050ED1
:10171000536FC60E546F050E556F04EE3BF0F8DEA6
:10172000F7DE160E706E1E0E716E1188120000C06C
:10173000DCFFEFA64CD0EFBE4AD0050EEBCF00F099
:10174000060EEB500012D8A406D0010EEBB402D066
:10175000EFAC3DD0EF9C020EEBCFE1FF030EEFB4F8
:10176000040FE126040EE26EEF34060B080FEBCFF8
:10177000E5FFFF0FEBCFE5FF050EEBCFE5FF060E14
:10178000EB500809E76E010EEBB0E78CEB70E78ECB
:10179000010EEBA20AD0EB94030EEBCF00F0050E86
:1017A000EB50001A02E1010EEB84010EEFB0030EC4
:1017B000EFB2020EEF1AEF96EFB8EF86EF98EF74E4
:1017C000EF9AEFBCEF8A050EEB6A010FEB6ADDCFF3
:1017D00000F01200F00E0116030E0112EFAC08D05B
:1017E000060EEB52D8A404D00752EB52D8B40184B1
:1017F000EFBA26D0019201B823D00190EF34060B46
:10180000080FEBCFE1FF010FEBCFE2FF060EEB502D
:10181000E126070EEB50E222060EEB2A070ED8B0A7
:10182000EB2A040EEB06EBCF00F0050ED8A0EB067A
:10183000EB500012E7CF00F0D8A402D0EF8A68DEA8
:10184000120002C0DCFF03C0DCFFF00E0116030E25
:101850000112EFBA2ED0019201BAEF8E01B829D051
:10186000019001AAEF9EEF34060B070FEBCFE1FFCB
:10187000010FEBCFE2FF050EEB50E126060EEB5019
:10188000E22200C0E7FF050EEB2AEBCF02F0060EC6
:10189000D8B0EB2AEBCF03F0030EEB500218D8A41C
:1018A00007D0040EEB500318D8A402D0EF8AEF9EA5
:1018B0003EDFDDCF03F0DDCF02F01200F00E0116A7
:1018C000030E0112EFBC14D0019201B811D0EF9EAB
:1018D00001BC0AD0EFBA08D0050EEB52D8A407D04D
:1018E000060EEB52D8A403D00190EF8CEF8A1FDFD5
:1018F000120002C0DCFFF00E0116030E0112050EED
:10190000EBCF02F0060EEB500210D8A407D00184F2
:10191000EF50180B180AD8B4018609D0EFA607D0EB
:10192000019201B804D001900184EF9E00DFDDCF69
:1019300002F0120004EE20F04DD77080120004EE89
:101940002EF07FD704EE2FF0EF90120004EE2FF070
:10195000EF80120004EE2EF0CCD704EE2EF0AED7BE
:1019600004EE3BF037D704EE49F06BD704EE4AF0B3
:10197000EF90120004EE4AF0EF80120004EE49F0FE
:10198000B8D700C072F111841200119068A203D080
:1019900011806A6A120068A003D0118004DE120070
:1019A00068A624D06CCF00F06896140EF76E000E77
:1019B000F86E00403E0B540FF66E000EF722F82230
:1019C0000900F5CFE9FF0800F5BE10D0F5CFEAFF1A
:1019D0001180EF300018020B080ED8A4100EEF1281
:1019E00000B402D095DD1200A2DE120068AC03D074
:1019F000689C1180120068AA03D0689A11801200B6
:101A000068A803D068981180120068A403D0689475
:061A10001180120012001B
:0A1A1600206A216A010E326E400EB4
:101A2000336E080E346E400E356E1398139A010112
:101A3000A60E226F0F0E236FA90E246F0F0E256FB7
:101A4000AA0E266F0F0E276FA80E286F0F0E296F94
:101A5000840E2A6F070E2B6F320E2C6F2D6B600ECB
:101A60002E6F070E2F6F660E306F070E316F620EEE
:101A7000326F070E336F640E346F070E356F12002E
:101A80001C6A1D6A1E6A3C0E1F6E266A276A286A37
:101A9000296A2A6A2B6A2C6A2D6A2E6A2F6A306A92
:101AA000316AB9DF120013BE04D0F2EC1BF0A5ECD2
:101AB00019F093EC11F0A5EC19F09BEC11F0A5ECEA
:101AC00019F02BEC1AF013AE04D0A5EC19F0F2ECDF
:101AD0001BF02D0E436E010E446E456A41EC19F069
:101AE000A5EC19F01200A1EC11F099EC11F01BEC2F
:101AF0001AF0A5EC19F0EFEC1BF0A5EC19F02D0E87
:101B0000436E010E446E456A41EC19F01200262A1C
:101B1000000E272228221200292A000E2A222B2218
:101B2000148C120000C0DCFF01C0DCFF02C0DCFF2F
:101B300003C0DCFF08C0DCFF2CC029F02DC02AF058
:101B40002EC02BF0149A149CA5EC19F0ACDFA5EC78
:101B500019F01C50D8B430D00C08D8A02DD01B0ED2
:101B6000FA6E000EFB6E1C04E846E846030BFA26EC
:101B7000D8B0FB2A1C04E846E846FC0B880FD8B016
:101B8000FA2AD8B0FB2AF96E1CEF0EF024EF0EF003
:101B900025EF0EF024EF0EF024EF0EF061EF0EF0C3
:101BA0009DEF0EF0A1EF0EF02CEF0EF0AAEF0EF06D
:101BB0007FEF0EF0ABEF0EF04BEF0EF01C50D8B4F1
:101BC00030D00C08D8A02DD01B0EFA6E000EFB6E84
:101BD0001C04E846E846030BFA26D8B0FB2A1C048E
:101BE000E846E846FC0BF20FD8B0FA2AD8B0FB2A38
:101BF000F96E11EF0EF011EF0EF011EF0EF0B0EFE5
:101C000007F011EF0EF011EF0EF0B0EF07F0B0EFAC
:101C100007F011EF0EF0B0EF07F011EF0EF0B0EF9C
:101C200007F0DDCF08F0DDCF03F0DDCF02F0DDCF30
:101C300001F0DDCF00F01200148AF6EC1BF0A5ECE9
:101C400019F051EC1AF0BAD7148A51EC1AF0A5EC3D
:101C500019F0F6EC1BF0B2D7149A51EC1AF0A5EC7F
:101C600019F0070E436E446A456A41EC19F0A5EC81
:101C700019F0500E006E480E016E430E026E4D0EAE
:101C8000036E200E086EB3EC11F0006A010E086EB0
:101C9000B3EC11F093D7148AF2EC1BF0A5EC19F019
:101CA00051EC1AF0A5EC19F0B20E006EC20E016EE6
:101CB000120E026E0A0E036E200E086EB3EC11F0C7
:101CC0007DD7148AF2EC1BF0A5EC19F02BEC1AF07E
:101CD000A5EC19F051EC1AF0A5EC19F0FDEC1BF095
:101CE000B20E006EC20E016E120E026E0A0E036E6E
:101CF000200E086EB3EC11F0F6EC1BF05FD7148ADF
:101D0000F2EC1BF0A5EC19F02BEC1AF0A5EC19F095
:101D100051EC1AF0A5EC19F0F6EC1BF0A5EC19F05B
:101D2000B20E006EC20E016E120E026E0A0E036E2D
:101D3000200E086EB3EC11F041D7346A400E356EB8
:101D400010D0040E326E400E336E040E346E400E10
:101D5000356E07D006D0010E346E400E356E138AF4
:101D600000D01388148AF2EC1BF0A5EC19F02BECD0
:101D70001AF0A5EC19F051EC1AF0A5EC19F0070EC9
:101D8000436E446A456A41EC19F0A5EC19F0FDEC8C
:101D90001BF0A5EC19F00E0E436E446A456A41EC47
:101DA00019F0A5EC19F0B20E006EC20E016E120E03
:101DB000026E8A0E036E200E086EB3EC11F0F6EC84
:101DC0001BF0A5EC19F0330E436E010E446E456A0C
:101DD00041EC19F0F3D600C0DCFF01C0DCFF02C00B
:101DE000DCFF03C0DCFF08C0DCFF1E50D8B424D0E9
:101DF0000608D8A021D01E0EFA6E000EFB6E1E043F
:101E0000E846E846030BFA26D8B0FB2A1E04E8464B
:101E1000E846FC0B200FD8B0FA2AD8B0FB2AF96E9E
:101E20001CEF0FF01CEF0FF010EF19F01CEF0FF08C
:101E30001CEF0FF01CEF0FF0DDCF08F0DDCF03F04B
:101E4000DDCF02F0DDCF01F0DDCF00F0120002C0E7
:101E5000DCFF03C0DCFF08C0DCFF1E50D8B428D074
:101E60000808D8A025D01E0EFA6E000EFB6E1E04C8
:101E7000E846E846030BFA26D8B0FB2A1E04E846DB
:101E8000E846FC0B900FD8B0FA2AD8B0FB2AF96EBE
:101E900086EF17F0B1EF13F013EF19F049EF08F0E8
:101EA000B1EF13F0F6EF14F0DEEF16F001EF15F0DE
:101EB000DDCF08F0DDCF03F0DDCF02F0120000C06F
:101EC000DCFF01C0DCFF02C0DCFF03C0DCFF08C098
:101ED000DCFF14901492149414961F50436E446ABD
:101EE000456A1D50D8B434D00E08D8A031D01F0E8A
:101EF000FA6E000EFB6E1D04E846E846030BFA2658
:101F0000D8B0FB2A1D04E846E846FC0B180FD8B0F1
:101F1000FA2AD8B0FB2AF96E91EF17F0C6EF17F046
:101F20001CEF19F056EF09F0C8EF17F0D8EF17F0D3
:101F3000DBEF17F00CEF14F0DDEF17F0D7EF17F031
:101F4000DFEF17F048EF15F0F2EF16F05BEF15F04A
:101F5000DDCF08F0DDCF03F0DDCF02F0DDCF01F003
:061F6000DDCF00F01200CD
:0A1F660001014A0E5A6F200E5B6F56
:101F7000000E5C6F010E596F1200016AAAEC0CF0A2
:101F800001B602D019D8F9D712006D98016AAAECEF
:101F90000CF001B402D010D8F9D7A6EC0CF0120066
:101FA000200E016E9FEC0CF001A002D005D8F8D7EE
:101FB0000101704B712B120000C052F101C053F1AE
:101FC00002C054F103C055F104C056F105C057F1E9
:101FD00006C058F1FC041F0B016E0101596F01EEA0
:101FE0005AF0FDCFEEFFFECFEEFFFFCFEEFF060073
:101FF000012EF7D7120011A202D0119226D00101B2
:1020000001EE59F05951016E030DF350E926014ECE
:1020100008D00500ED50FF6EED50FE6EED50FD6EE8
:10202000F6D752C100F053C101F054C102F055C1BE
:1020300003F056C104F057C105F058C106F05C51D9
:10204000FB6E5B51FA6E5A51F96E01016E6B6F6B4C
:1020500011AA03D093EC1AF0119A080E026E016ACD
:102060009AEC0CF001A002D0A7DFF9D701A402D0AE
:10207000080E026E01EE66F002500808E92600C064
:10208000EFFF022EECD70101706B716B000EFB6E3F
:10209000200EFA6E67510C08D8A023D06735E834BB
:1020A000FC0BAE0FD8B0FA2AD8B0FB2AF96E71EF4C
:1020B00010F071EF10F071EF10F071EF10F071EFA0
:1020C00010F054EF11F0B8EF10F071EF10F063EF73
:1020D00011F05CEF11F06BEF11F068EF11F071EFA0
:1020E00010F06D989DEC0CF0B8D74FDF0101035054
:1020F0006D5DD8A006D0D8A408D002506C5DD8B0D1
:1021000004D06CC102F06DC103F002500310D8B4CA
:1021100012D004C0F6FF05C0F7FF06C0F8FF0800A4
:10212000F5CF00F03DDF042A000E0522062202064C
:10213000D8A00306EAD701016C51070BD8A408D038
:102140006C517019D8A404D06D517119D8B485D7C9
:10215000016AADEC0CF001A280D72EDFF9D715DFB4
:10216000400E016EADEC0CF001A077D725DFF8D75B
:1021700001016951FF0FD8A40DD06853D8A4B1D77D
:10218000840E046E360E056E000E066E120E026E82
:10219000036AABD7FF0FD8A40DD06853D8A4A1D73A
:1021A000960E046E360E056E000E066E200E026E42
:1021B000036A9BD7FF0FD8A494D76805D8B45DD025
:1021C00068510308D8A08DD76851D8A4FF0FE82420
:1021D000E40FF66E360ED8B0010FF76E000ED8B0D1
:1021E000010FF86E0900F5CF04F00800F5CF05F0F7
:1021F000B60E0426360E0522000E066E000E0622CE
:1022000004C0F6FF05C0F7FF06C0F8FF0800F5CFD1
:1022100002F0036A6851D8B468D76D53D8A405D0CA
:1022200002506C5DD8A06CC102F0AFDE0250D8B491
:1022300082D7F5CF00F0B4DE024E7DD7030E006EDC
:10224000AFDE024E78D7020E0426000E05220622CB
:1022500004C0F6FF05C0F7FF06C0F8FF0800F5CF81
:1022600000F09EDE024E67D7006A9ADE024E63D708
:10227000042A000E05220622EBD787DE75EC1AF041
:10228000118A0050026E020F006E8ADE030E006E8D
:1022900087DE025205E002068AEC1AF081DEF9D7E9
:1022A00093EC1AF0119A47D770DE400EADEC0CF0AB
:1022B00064DE68C16EFFD1D6010168516E6F006E99
:1022C00060EC0BF04CD76EC100F06ADE5EDE33D7F7
:1022D00068C16FF144D76FC100F062DE56DE2BD7C4
:1022E0008A92939200D08A90939094801200938067
:1022F000138C8B909490020E436E446A456A41ECB5
:1023000019F0A5EC19F081B00CD08B80020E436E51
:10231000446A456A41EC19F0A5EC19F081A001D09E
:10232000139C948012008A92939212008A82939254
:102330001200938212008A90939012008A809390E8
:10234000120093801200006A81B0008012008A821D
:10235000939200008A80939000008A9293920000EA
:102360008A909390F4D700C0DCFF01C0DCFF02C06C
:10237000DCFF03C0DCFF08C0DCFF00A00ED08A80B9
:1023800093908A82939203320232013200328A920F
:102390009392084E11D000B0F2D78A9093908A821F
:1023A000939203320232013200328A929392084EA3
:1023B00003D000A0F2D7E3D79380DDCF08F0DDCFC4
:1023C00003F0DDCF02F0DDCF01F0DDCF00F0120031
:1023D00008C0DCFF060E086EC6DFDDCF08F0120075
:1023E00000C0DCFF01C0DCFF08C0DCFF00360136A6
:1023F0000090019E100E086EB6DFDDCF08F0DDCF35
:1024000001F0DDCF00F0120000C0DCFF01C0DCFFF6
:1024100002C0DCFF08C0DCFF003601360236009047
:10242000029E180E086E9FDFDDCF08F0DDCF02F0B0
:10243000DDCF01F0DDCF00F0120008C0DCFF09C0E5
:10244000DCFF8A9293929380210E096E8A82939286
:10245000D8900332023201320032090681B0038E75
:102460008A929392082EF2D7094E06D0D890033262
:10247000023201320032F8D7DDCF09F0DDCF08F0AB
:10248000120002C0DCFF03C0DCFF08C0DCFF100E3E
:10249000086ED3DF013200323F0E0116DDCF08F0A7
:1024A000DDCF03F0DDCF02F0120000C0DCFF01C081
:1024B000DCFF080E016E00BE0BD08A9093908A82DA
:1024C000939200368A929392014E0ED000AEF5D7C9
:1024D0008A8093908A82939200368A929392014ED8
:1024E00003D000AEEAD7F4D79380DDCF01F0DDCF83
:1024F00000F0120000C0DCFF01C0DCFF02C0DCFF06
:1025000003C0DCFF180E036E02BE0DD08A909390BC
:102510008A8293920036013602368A929392034E53
:1025200010D002AEF3D78A8093908A8293920036BD
:10253000013602368A929392034E03D002AEE6D75A
:10254000F2D79380DDCF03F0DDCF02F0DDCF01F0D5
:10255000DDCF00F0120000C0DCFF01C0DCFF02C0D4
:10256000DCFF026AD890003601360236C3DFDDCFC9
:1025700002F0DDCF01F0DDCF00F0120000C0DCFF83
:1025800001C0DCFF02C0DCFF026A3F0E0116D890DA
:1025900000360136AFDFDDCF02F0DDCF01F0DDCF59
:1025A00000F0120000C0DCFF01C0DCFF02C0DCFF55
:1025B000016A026AD8900036013602369BDFDDCF11
:1025C00002F0DDCF01F0DDCF00F0120003C0DCFF30
:1025D0008A9293929380180E036E8A829392D89077
:1025E00000360136023681B000808A929392032E23
:1025F000F4D7DDCF03F0120002C0DCFFE7DF0132C9
:1026000000323F0E0116DDCF02F0120001C0DCFFE8
:1026100002C0DCFFDBDF01320032DDCF02F0DDCFB4
:0426200001F01200B3
:0C26240008C0DCFF140E086EB3EC11F0CF
:10263000DDCF08F0120000C0DCFF01C0DCFF02C0EB
:10264000DCFF08C0DCFF026AD89000360136023693
:1026500000360136023600360136023600360136C3
:102660000236140E086EB3EC11F0DDCF08F0DDCFAA
:1026700002F0DDCF01F0DDCF00F0120000C0DCFF82
:1026800001C0DCFF08C0DCFF006A040E086EB3EC7A
:1026900011F00E0E016E0250006E100E086EB3ECBB
:1026A00011F0006A040E086EB3EC11F06E0E016EAC
:1026B0000350006E100E086EB3EC11F0DDCF08F081
:1026C000DDCF01F0DDCF00F0120000C0DCFF01C063
:1026D000DCFF800E016E02340E0B011203C000F00D
:1026E000AADFDDCF01F0DDCF00F0120000C0DCFF7B
:1026F00001C0DCFF900E016E02340E0B011203C00C
:1027000000F099DFDDCF01F0DDCF00F0120002C054
:10271000DCFF03C0DCFF14AA0CD026502918D8A473
:1027200008D027502A18D8A404D028502B18D8B481
:1027300013D0148A2650296E026EF60E036E9EDFA9
:1027400027502A6E026EF70E036E98DF28502B6E0C
:10275000026EF80E036E92DFDDCF03F0DDCF02F0E4
:10276000120014B810D0D3DF090E006E016A0C0EEF
:10277000086EB3EC11F0080E086E1DEC12F08CEC34
:102780000DF058EF0FF0070E026E22C103F0AEDF1E
:10279000060E026E22C103F0A9DF24C103F026C099
:1027A00002F06CDF26C103F027C002F067DF000EE5
:1027B000026E22C103F089DF500E016E28C100F0C5
:1027C0003ADF500E006EEF0E016E060E026E2ADF2B
:1027D000006A016A026A26DF020E006E016A0C0EB0
:1027E000086EB3EC11F0080E086E1DEC12F058EFF5
:1027F0000FF000C0DCFF01C0DCFF070E026E22C13B
:1028000003F063DF060E026E22C103F06FDFDDCF3F
:1028100001F0DDCF00F07BD714B84BD026B005D047
:1028200000C039F174DFA8EF0FF000C001F039C12A
:1028300000F0026AD89000360136023600360136C2
:102840000236003601360236003601360236140EE4
:10285000086E2204036E26140318D8B40BD00D0E94
:102860000012B3EC11F0020E2926000E2A222B22B0
:10287000A8EF0FF00F0E0012B3EC11F0006A030E78
:10288000086EB3EC11F096EC11F041EC19F0A5ECE8
:1028900019F093EC11F0020E436E41EC19F0A5EC27
:1028A00019F0006A016A100E086EB3EC11F0A8EF7F
:1028B0000FF024C103F026C002F0E0DE26C103F0D1
:1028C00027C002F0DBDE28C103F000C002F0D6DE34
:1028D000010E026E22C103F0F8DE006A016A026A8C
:1028E000A1DE006A016A026A9DDE41EC19F0A8EFE0
:0228F0000FF0E7
:0E28F20000C0DCFF01C0DCFF14AA0AD02A508F
:10290000275CD8A006D0D8A40BD02950265CD8B01C
:1029100007D0296A2A6A148A160E006EE8EC11F0B4
:1029200027AE0CD02ABE0AD0296A800E2A6E006A11
:10293000E8EC11F0006A016AF0EC11F02950261859
:10294000006E2A5027180010D8B407D0060E006E6B
:10295000E8EC11F08CEC0DF0F1D7DDCF01F0DDCF1C
:1029600000F0120000C0DCFF01C0DCFF02C0DCFF91
:102970002750016E2650006E14A804D02F50002658
:102980003050012214AA1DD029500018026E2A507E
:102990000118021024E02A500118800B12E12928A6
:1029A000026E000E2A2001180CE10250001809E105
:1029B00000C029F001C02AF0060E006EE8EC11F00C
:1029C0000ED000C029F001C02AF01D0E006EE8EC08
:1029D00011F026C000F0026A04EC12F0148ADDCF78
:1029E00002F0DDCF01F0DDCF00F0120082DF040E37
:1029F00014B8050E006EE8EC11F041EC12F058EF3F
:102A00000FF0B0DF240E006EE8EC11F041EC12F094
:102A10002A50800B026E292A000E2A207F0B0210FA
:102A20002A6E58EF0FF065DF0050026E020E14B8E8
:102A3000030E006EE8EC11F00250006EF0EC11F0A5
:102A400014B810D02204006E26140018D8B40AD08E
:102A50002750245CD8A006D0D8A418D02650235CD8
:102A6000D8B014D037C100F0E8EC11F041EC19F007
:102A700014A00CD038C100F0A5EC19F0E8EC11F06E
:102A8000020E436E446A456A41EC19F0A8EF0FF05C
:102A90000101180E376F0A0E386F148027BE02D05E
:102AA00014A8C1D71F0E436E446A456A0101080E7F
:102AB000376F1490B8D756DF2ABE32D02204026E88
:102AC000261402180EE000C002F0220E006EE8ECA0
:102AD00011F002C000F0F0EC11F08CEC0DF0A8EF5A
:102AE0000FF000C002F0020E006EE8EC11F002C020
:102AF00000F0F0EC11F0180E006EE8EC11F041EC73
:102B000019F00A0E006EA5EC19F0E8EC11F0030EB6
:102B1000436E446A456A41EC19F0149AA8EF0FF02D
:102B200000C002F0020E006EE8EC11F002C000F0EE
:102B3000F0EC11F0080E006EE8EC11F01F0E436E81
:0C2B4000446A456A41EC19F0A8EF0FF060
:042B4C00476A0101D2
:102B5000450E4C6F020E4D6F010EE8CF45F2000E90
:102B60004E6F020E4F6F000EE8CF00F2940E506FC2
:102B7000010E516F000EE8CF94F1120000C0DCFF8F
:102B800001C0DCFF05C0DCFF030E056E11EE4CF04A
:102B9000E6CFE9FFE6CFEAFFEF5203E0052EF8D7D4
:102BA000FF00DDCF05F000C0E1FF01C0E2FF00C083
:102BB000E6FF01C0E6FF02C0E6FF03C0E6FF04C077
:102BC000E6FF05C0E6FF06C0E6FF07C0E6FFEE2A07
:102BD000000E0006015AE55200C0EEFF01C0EEFFF4
:102BE00000C0EEFF01C0EEFFE1CFEEFFE2CFEEFF4F
:102BF00002C0EEFF03C0EEFFDDCF01F0DDCF00F03D
:102C0000120008C0DCFF09C0DCFF0AC0DCFF0BC0FB
:102C1000DCFF0CC0DCFF0DC0DCFF0EC0DCFF0FC012
:102C2000DCFF10C0DCFF13D8DDCF10F0DDCF0FF0DC
:102C3000DDCF0EF0DDCF0DF0DDCF0CF0DDCF0BF0F2
:102C4000DDCF0AF0DDCF09F0DDCF08F0120000C0C3
:102C5000DCFF01C0DCFF02C0DCFF03C0DCFF04C0FE
:102C6000DCFF05C0DCFF06C0DCFF07C0DCFFE9CFEE
:102C700000F0EACF01F001EE4CF04744E926EE50B7
:102C8000EFCFEAFFE96EFC501F0B026EEE6E00C044
:102C9000EEFF01C0EEFFE1CFEEFFE2CFEEFFD9CFB6
:102CA000EEFFDACFEEFFFD50EE6EFE50EE6E060048
:102CB000022EF9D7472A47500208D8A0476A01EEEA
:102CC0004CF04744E926EE50EFCFEAFFE96EEF52B1
:102CD000F1E0EECF01F0EECF02F0EECF03F0F29E86
:102CE000FC6AEECFE1FFEECFE2FFEECFD9FFEECFF1
:102CF000DAFFF28E0144FF0FE926000EEA220500FA
:102D0000ED50FE6EED50FD6E012EF9D702C0E9FFC9
:102D100003C0EAFFDDCF07F0DDCF06F0DDCF05F021
:102D2000DDCF04F0DDCF03F0DDCF02F0DDCF01F029
:102D3000DDCF00F0120000500208D8A00DD001EE47
:102D40004CF00044E926EE50EFCFEAFFE96EEF6A5F
:102D50000050475CD8B4AED7120001EE4CF04744A7
:0E2D6000E926EE50EFCFEAFFE96EEF6AA3D747
:022D6E0000C0A3
:102D7000DCFF01C0DCFF14AA06D02950261803E1AD
:102D80002A50271816E0A5EC19F000C036F1800E85
:102D9000006E55EC12F036C100F000D000D00000FB
:102DA0002650296E006E27502A6E016EABEC12F091
:102DB000148ADDCF01F0DDCF00F01200D8DFA5ECE2
:102DC00019F000C036F1FE0E006E55EC12F036C15F
:102DD00000F000D000D00000FCEC12F08CEC0DF004
:102DE00058EF0FF0C4DF2650235C27502458D8A09A
:102DF00036D02204026E2614021813E0A5EC19F056
:102E000000C036F1020E006E55EC12F036C100F033
:102E100000D000D00000BEEC12F08CEC0DF0A8EF5A
:102E20000FF0A5EC19F000C036F1000E006E55EC65
:102E300012F036C100F000D000D00000BEEC12F05D
:102E400000C036F1E00E006E55EC12F036C100F015
:102E500000D000D0000041EC19F0A8EF0FF0A5EC75
:102E600019F000C036F1000E006E55EC12F036C1BC
:102E700000F000D000D00000BEEC12F000C036F12F
:102E8000E00E006E55EC12F036C100F000D000D01C
:102E90000000250E436E446A456A41EC19F0A8EF24
:022EA0000FF031
:0E2EA20000C0DCFF01C0DCFF14AA0AD02A50D9
:102EB000275CD8A006D0D8A408D02950265CD8B06A
:102EC00004D092EC0DF0A5EC19F027AA0BD02ABA89
:102ED00009D0296A200E2A6E006AE8EC11F0016A16
:102EE000F0EC11F029502618006E2A502718001017
:102EF000D8B407D0060E006EE8EC11F08CEC0DF0A3
:102F0000F1D7DDCF01F0DDCF00F01200CADF040EF3
:102F100014B8050E006EE8EC11F041EC12F058EF19
:102F20000FF0BFDF0050026E020E14B8030E006EE9
:102F3000E8EC11F00250006EF0EC11F014B810D073
:102F40002204006E26140018D8B40AD02750245C3E
:102F5000D8A006D0D8A418D02650235CD8B014D05E
:102F6000180E14B0080E006EE8EC11F041EC19F0E8
:102F700014A20AD0170E14B40E0E14B60A0E006E68
:102F8000A5EC19F0E8EC11F0A8EF0FF01480C9D708
:102F900014822650070AD8A4C4D72750200AD8A4E0
:102FA000C0D714801492310E436E446ABAD714808D
:102FB00014821484B6D71480B4D71482B2D7148282
:042FC0001486AFD7ED
:0C2FC40013A415D0948E0001A16B010E27
:102FD000A26FA36FAB6A240EAC6E080EB86E380EEB
:102FE000AF6E010EB06E900EAB6E9D8A080ED56E60
:102FF000F2941200AB500001486EAE50496EABA285
:1030000002D0AB98AB8848B40ED0200EA15DD8B0EA
:103010000AD000EEA3F0A25149C0EBFFA12B200E75
:10302000A24FA26F128E4BEF00F0F29E0001200E15
:10303000A15DD8B00AD000EEA3F0A25100C0EBFF12
:10304000A12B200EA24FA26F128EF28E120012AE92
:10305000FED70001F29E00EEA3F0A351EBCF00F0EB
:10306000A107200EA34FA36FA16701D0129EF28E7D
:1030700012009EB805D09EA8FED700C0ADFF17D0A5
:10308000ACB20AD0F29EF2B404D000C0ADFFF28E12
:103090000ED0F28EACA2FED7D59EF70ED76E350EAF
:1030A000D66EF294F29E00C0ADFFD58EF28E120065
:1030B00000C0DCFF0A0EC16E020EC06E010EC26EB1
:1030C0009D8C01EE00F0080E006EEE6A002EFDD71A
:1030D000DDCF00F01200166AEECF17F0EECF18F039
:1030E000196AEECF1AF0EDCF1BF0D89018321732D4
:1030F00016321B321A3219321832173216321B327C
:103100001A3219321832173216321B321A32193269
:103110001950165E1A50175A1B50185A1750EE269F
:103120001850ED2212009E9C01EE00F0C3CFEEFF7E
:10313000C4CFEDFFD0DFCFDFCEDF4BEF00F002C01A
:10314000DCFF03C0DCFF04C0DCFF05C0DCFF06C001
:10315000DCFF07C0DCFFF29E06C100F007C101F0F2
:10316000F28EE70E046E0C0E056E066A076A026A9E
:10317000036AC6EC1AF002C000F003C001F0DDCF14
:1031800007F0DDCF06F0DDCF05F0DDCF04F0DDCFB9
:0831900003F0DDCF02F0120094
:0831980000C0DCFF01C0DCFFF8
:1031A00002C0DCFF03C0DCFF26C002F027C003F032
:1031B00014A804D02F5002263050032202502C189D
:1031C000006E03502D18001202E114BC149A14BAB8
:1031D00006D0A5EC19F092EC0DF0A5EC19F02C50EE
:1031E00002162D50031629500218D8A404D02A50D4
:1031F0000318D8B40CD0060E006EE8EC11F08CEC7D
:103200000DF02C5029162D502A162B6AECD7DDCF45
:1032100003F0DDCF02F0DDCF01F0DDCF00F01200D2
:10322000BBDF1CEF0FF0B8DF040E006EE8EC11F00E
:1032300041EC12F058EF0FF0AFDF00C002F0020EC9
:10324000006EE8EC11F002C000F0F0EC11F0080E96
:10325000006EE8EC11F01FC043F0446A41EC19F035
:10326000A5EC19F00E0E006EE8EC11F0020E436EA4
:0A327000446A41EC19F0A8EF0FF0DA
:06327A00466A0101466BEB
:103280001200F29E43C03AF044C03BF045C03CF00F
:103290001294F28E466A0101466B12000101010E82
:1032A000466F02C0DCFF03C0DCFF0130036E00305C
:1032B000026E03320232033202320332023203322E
:1032C0000232070E03160350000807E303E1640E01
:1032D000025C03E2640E026E036A0250005C476FF8
:1032E00003500158486F02E2476B486B02500024BC
:1032F000496F035001204A6F02E349694A69DDCFF3
:1033000003F0DDCF02F01200010E466E01014751BD
:10331000005C4851015809E3020E466E0050495DB9
:1033200001504A5902E3466A1284120000C0DCFFD1
:1033300001C0DCFF0101465103E09FEC18F0E4DF1F
:10334000DDCF01F0DDCF00F01200F0DF12A4FDD7D9
:02335000120069
:0E3352000101446B1200190E3D6E1200190E9F
:103360003F6E12000101010E4419D8B40DD0010EB8
:10337000446F110E366EC80E376EC80E386E010ED1
:10338000F29E396E1296F28E12000101030E44195C
:10339000D8B40DD0030E446F480E366E320E376E21
:1033A000320E386E010EF29E396E1296F28E1200B7
:1033B0000101020E4419D8B40DD0020E446F120E52
:1033C000366E190E376E190E386E010EF29E396E7A
:1033D0001296F28E12000101040E4419D8B40DD0D9
:1033E000040E446F8F0E366E640E376E640E386EA8
:1033F000010EF29E396E1296F28E120012B002D0B9
:1034000012A202D0190E3E6E3F52D8B402D0E3DFB2
:103410000BD03E52D8B402D0B8DF06D03D52D8B45B
:0A34200002D0C6DF01D09EDF1200CB
:06342A0004D80101936BC0
:1034300002D81200120001019351010A0BE0010EA3
:10344000936F8A968A947A0E436E446A456A41EC79
:1034500019F01290120000C0DCFF01C0DCFF010176
:103460009351020A19E0020E936F8A947A0E436E0A
:10347000446A456A41EC19F0A5EC19F08A862D0ED4
:10348000436E010E446E456A41EC19F0640E006E05
:10349000016A4EEC19F01290DDCF01F0DDCF00F0A3
:1034A000120000C0DCFF01C0DCFF01019351030AE0
:1034B00010E0030E936F8A968A8412802D0E436E5D
:1034C000010E446E456A41EC19F0E40E006E0C0EDC
:1034D000016EDDCF01F0DDCF00F0120012008A9402
:0834E0008A9612900101936B22
:0834E800120001C0DCFF02C06C
:1034F000DCFF016A026A78EC1BF07BEC1BF00050E9
:103500005008D8A0006A00C045F1DDCF02F0DDCF41
:1035100001F01200006A01014553D8B403D04507F9
:103520007BEC1BF01200120001C0DCFF02C0DCFFCC
:10353000010E016E026A78EC1BF00101500E456F1E
:10354000DDCF02F0DDCF01F0120001014553D8B408
:1035500003D0450787EC1BF0120000C0DCFF01C060
:10356000DCFF02C0DCFF016A026A78EC1BF001019B
:1035700045515008006E87EC1BF0A2EC1BF0DDCF2C
:0C35800002F0DDCF01F0DDCF00F0120002
:04358C0004C0DCFF9C
:1035900005C0DCFF06C0DCFF07C0DCFF08C0DCFFA5
:1035A00009C0DCFF0AC0DCFF0BC0DCFF0050086E66
:1035B0000150096E02500A6E03500B6E006A016AD8
:1035C000026A036A085009100A100B10D8B4FAEF07
:1035D0001AF008A0EEEF1AF02DEC1CF0D8900B3288
:1035E0000A3209320832D8900436053606360736D4
:1035F000E2EF1AF0DDCF0BF0DDCF0AF0DDCF09F0FE
:10360000DDCF08F0DDCF07F0DDCF06F0DDCF05F030
:06361000DDCF04F0120002
:0A361600800EF16EF06A9D6AA06A52
:103620009E6AA16A9F6AA26AD09E116A126A136A90
:10363000146A156A49EC1CF01DEC1CF0A6EC15F0A0
:1036400075EC1BF0A6EC1BF074EC1AF0E2EC17F032
:1036500050EC00F0EDEC1BF015EC1AF070EC11F0F2
:1036600040EC0DF058EC18F0A9EC19F03DEC19F015
:10367000E5EC05F04AEC0AF0B3EC0FF0D3EC1BF0EC
:0436800045EF1CF006
:0C36840012011001FF00FF08C016C8056D
:103690001800020300010902200001010080FA095C
:1036A00004000002FF00FF000705010240000107BF
:1036B000058102400001040309041403456D62659D
:1036C0006420496E633C034C50726F67206C6F77C7
:1036D00020636F7374205049432070726F6772616A
:0A36E0006D6D6572000004000F001C
:0636EA0001014B6B120010
:1036F00001C04BF11200A6B27BEF1BF04BC1A9FF3A
:10370000A66AA68001014B2BA8CF00F0120001C0D1
:10371000DCFFA6B289EF1BF04BC1A9FF00C0A8FFD8
:10372000A66AA684F2CF01F0550EF29EA76EAA0EED
:10373000A76EA68201BEF28EA69401014B2BDDCFAF
:0C37400001F01200A6B2A2EF1BF0120074
:04374C0000C0DCFFDE
:1037500008D813940050FF0AD8A41384DDCF00F0DA
:10376000120001C0DCFF02C0DCFF510E016E026AD4
:1037700078EC1BF07BEC1BF0DDCF02F0DDCF01F02D
:10378000120001C0DCFF02C0DCFF510E016E026AB4
:1037900078EC1BF087EC1BF0A2EC1BF0DDCF02F005
:0637A000DDCF01F0120074
:0A37A600366A376A386A396A3A6AEF
:1037B0003B6A3C6A12843D6A3E6A3F6A1E0E406E56
:1037C0003C0E416E426AF90ECB6E1C0ECA6ECC6A7C
:0A37D0009E929D82F28CF28E120090
:0637DA0001D812009388E3
:1037E000129212008A989398129212008A889398E3
:1037F000128212001200F3DF1200F29E8A8800D0BB
:0A38000000D000D08A98F28E12006A
:06380A0001018C0D00001D
:103810000000010001010101010101010800000097
:103820000001010101010E00000000010101010180
:09383000010101010101012A2A34
:06383A00C26A0F0EC16E10
:10384000070EB46EF18E896A010E926E8A6A200E9E
:0A385000936E8B6A946A846A12007A
:06385A0008C0DCFF045071
:103860000026055001220650022207500322DDCF18
:0438700008F012004A
:0C38740027EC16F011A602D01196138666
:0A388000ADEC00F0FEEC19F0F5D7F6
:06388A0051EC0AF03AEFD8
:023890001CF02A
:0638920020EE5FF01200C1
:020000040030CA
:0E000000F13FD6FEFFF99AFFFFFFFFDFFFFF83
:0200000400F00A
:06000000054C50726F6711
:00000001FF
