:020000040000FA
:06000000F26A3FEF1BF065
:020006000000F8
:08000800E9CFDCFFEACFDCFFC9
:100010009EAA02D032EF18F09EAC02D0CBEF18F0BF
:100020009EB201D0FF009E92C2823A503B103C101B
:10003000D8B40AD0010E3A5E000E3B5A3C5A3A50F0
:100040003B103C10D8B41284412E09D01E0E416ED4
:10005000392E05D01276375012A63850396E0E0E52
:100060004306D8A0436E365012A636380F0B435CB9
:10007000D8A002D08B9401D08B84422E0CD03C0EA1
:10008000426E3D2A3E52D8A43E063F52D8A43F06B7
:100090004052D8A44006DDCFEAFFDDCFE9FF1100D2
:1000A00001019E0E0E6F010E0F6F000E106F010EFC
:1000B0000D6F120000C008F101C009F102C00AF181
:1000C00003C00BF108C00CF1FC041F0B016E010111
:1000D0000D6F01EE0EF0FDCFEEFFFECFEEFFFFCF76
:1000E000EEFF0600012EF7D7120001C0DCFFDDCFC6
:1000F00001F0E0DF01C0DCFF13A006D0016AC0EC14
:100100000CF001B0F4D704D012AEF1D75FEC18F0C8
:10011000E4EC19F0DDCF01F0120001C0DCFF13A008
:100120000BD0016AC3EC0CF001A008D0DDCF01F0C8
:10013000C1DF01C0DCFFF5D771EC18F0DDCF01F0B5
:10014000120012B41200B6DFCEEC19F0FAD7B2DF0B
:1001500012B8FDD71288128A1200010101EE0DF0CB
:100160000D51016E030DF350E926014E08D0050034
:10017000ED50FF6EED50FE6EED50FD6EF6D708C1EE
:1001800000F009C101F00AC102F00BC103F00CC17B
:1001900008F01051FB6E0F51FA6E0E51F96E13906C
:1001A000138288DF12AE03D05FEC18F007D0016A2B
:1001B000C0EC0CF001B0F5D7138013920050016E23
:1001C0005908D8A0ECD719D802500310D8B4E7D7F3
:1001D00013A208D000C0DCFF010E006E8DEC00F011
:1001E000DDCF00F0260E0226020E0320FA6E000E6E
:1001F000FB6E000EFB220250F96E036AD8900134A8
:10020000026E0336260E0224F66E020E0320F76EEF
:10021000000EF86E000EF8220900F5CF02F009007A
:10022000F5CF03F012000000B400B8000000C400D5
:10023000E000BA01D6017A02860292029E02AA0268
:10024000BA02D002F00200000000320300003E03B8
:100250004A0356036203C403800394030000D203DD
:100260004404E604080414041E04FA0302046C05A2
:10027000600438042603A0036E0600009A060000FE
:10028000AE0600000000BE06FA060000F2080C01EF
:100290004201FA012602FE050000A00408070E052F
:1002A000000038072C075C07000070079E07C8078E
:1002B0007C040000CA08DE08CA07DE07F207060849
:1002C0001A082E08420856086A087E089208AA08EA
:1002D00000000000820192015A02CFEF00F0A1EC71
:1002E00000F0A9EC0DF0CFEF00F075EC00F000503D
:1002F000070B010F086E75EC00F0A1EC00F0EBECC1
:1003000011F0CFEF00F075EC00F000500F0B010F73
:10031000086E75EC00F000C002F075EC00F000C053
:1003200001F002C000F0A1EC00F0EBEC11F0CFEF17
:1003300000F075EC00F000501F0B010F086E75EC1B
:1003400000F000C003F075EC00F000C001F075ECA7
:1003500000F000C002F003C000F0036AA1EC00F05E
:10036000EBEC11F0CFEF00F075EC00F000501F0B3C
:10037000010F086E75EC00F000C003F075EC00F0A2
:1003800000C001F075EC00F000C002F075EC00F068
:1003900000C004F003C000F004C003F0A1EC00F0C2
:1003A000EBEC11F0CFEF00F075EC00F0A1EC00F0F9
:1003B0008DEC12F0CFEF00F075EC00F000C003F010
:1003C00075EC00F000C001F075EC00F000C002F028
:1003D00003C000F0A1EC00F0B2EC12F0CFEF00F09F
:1003E00075EC00F00050070B010F086EA1EC00F057
:1003F00055EC12F08DEC00F0CFEF00F075EC00F052
:1004000000500F0B010F086EA1EC00F055EC12F03C
:100410008DEC00F001C000F08DEC00F0CFEF00F0AB
:1004200075EC00F000501F0B010F086EA1EC00F0FE
:1004300055EC12F08DEC00F001C000F08DEC00F0F6
:1004400002C000F08DEC00F0CFEF00F075EC00F092
:1004500000501F0B010F086EA1EC00F055EC12F0DC
:100460008DEC00F001C000F08DEC00F002C000F057
:100470008DEC00F003C000F08DEC00F0CFEF00F049
:10048000A1EC00F01EEC13F08DEC00F001C000F0C8
:100490008DEC00F002C000F08DEC00F0CFEF00F02A
:1004A000A1EC00F0CEEC11F0CFEF00F0A1EC00F0E9
:1004B000CBEC11F0CFEF00F0A1EC00F0D6EC11F096
:1004C000CFEF00F0A1EC00F0D3EC11F0CFEF00F093
:1004D000A1EC00F0DBEC11F08DEC00F0CFEF00F0C0
:1004E000A1EC00F0AFEC11F0006A13BC00808DECC1
:1004F00000F0CFEF00F075EC00F000C001F075ECFB
:1005000000F0A1EC00F001C044F000C045F079EC2F
:1005100019F0CFEF00F0010E006E8DEC00F01A0E16
:10052000006E8DEC00F01D0E006E8DEC00F0140ED0
:10053000006E8DEC00F0006A8DEC00F08DEC00F0A8
:100540008DEC00F08DEC00F0CFEF00F0030E006EAC
:100550008DEC00F0CFEF00F0A1EC00F089EC1AF088
:10056000CFEF00F0A1EC00F063EC1AF0CFEF00F059
:10057000A1EC00F02BEC1CF0CFEF00F0A1EC00F0B0
:1005800027EC1CF0CFEF00F075EC00F0139E00BEDE
:10059000138E009E00501C6E2C6A2D6A2E6A41EC50
:1005A0000DF0CFEF00F075EC00F000C01DF0010E73
:1005B000226E52EC1AF0CFEF00F075EC00F000C0A4
:1005C0001EF0CFEF00F075EC00F000C001F075EC0C
:1005D00000F000C002F075EC00F001C02CF002C089
:1005E0002DF000C02EF0CFEF00F01498A1EC00F039
:1005F000C8EC0DF0CFEF00F075EC00F000C001F09A
:1006000075EC00F000C002F075EC00F001C026F0BF
:1006100002C027F000C028F023EC0FF0CFEF00F06D
:10062000BDEC0DF0CFEF00F0149ACFEF00F075ECB9
:1006300000F000501F6ECFEF00F014A8CFEF00F0D5
:10064000149804D014B8CFEF00F01488261C296E3B
:10065000271C2A6E281C2B6E149ACFEF00F0A1ECF9
:1006600000F0E7EC19F0CFEF00F0A1EC00F05FEC48
:100670000FF08DEC00F001C000F08DEC00F0BDEC4F
:100680000DF0CFEF00F0A1EC00F0080E026E5FEC71
:100690000FF08DEC00F0BDEC0DF0022EF8D7CFEF8F
:1006A00000F0A1EC00F0400E026E5FEC0FF08DEC5C
:1006B00000F001C000F08DEC00F0BDEC0DF0022E5A
:1006C000F4D7CFEF00F0FC0E2616DDEC07F03CEC83
:1006D00008F08DEC00F001C000F08DEC00F002C0DD
:1006E00000F08DEC00F003C000F08DEC00F004C0D1
:1006F00000F08DEC00F005C000F08DEC00F0040E71
:100700002626000E27222822CFEF00F075EC00F0FD
:1007100000C002F075EC00F000C001F002C000F073
:10072000E7EC19F0A1EC00F097EC0FF0BDEC0DF048
:10073000CFEF00F0E7EC19F0080E086E1A0E026E0B
:10074000010E036E75EC00F002C0E9FF03C0EAFF82
:1007500000C0EFFF022AD8B0032A082EF3D70168A1
:10076000080E086E1A0E026E010E036E02C0E9FF3B
:1007700003C0EAFFEFCF00F0022AD8B0032AA1ECB1
:1007800000F097EC0FF0BDEC0DF0082EEFD7CFEF97
:1007900000F0E7EC19F0A1EC00F031EC14F0030EDE
:1007A000036E75EC00F00050026E75EC00F0005026
:1007B000016E0D0E0352D8B40F0E006E040E086EBB
:1007C000EBEC11F00250006E100E086EEBEC11F025
:1007D000030603AEE6D7006A030E086EEBEC11F0D9
:1007E000CEEC11F0070E446E456A466A79EC19F0BA
:1007F000080E2626D8B0272AD8B4282A149AA1ECA5
:1008000000F0CBEC11F0010E446E456A79EC19F062
:10081000DDEC19F0006A016A100E086EEBEC11F0C5
:10082000CFEF00F0E7EC19F0F80E261675EC00F0AB
:1008300000C001F075EC00F000C002F075EC00F0B3
:10084000A1EC00F091EC09F075EC00F000C001F0B3
:1008500075EC00F000C002F075EC00F0A4EC09F0BB
:1008600075EC00F000C001F075EC00F000C002F083
:1008700075EC00F0DBEC09F075EC00F000C001F065
:1008800075EC00F000C002F075EC00F0E3EC09F04C
:10089000CFEF00F075EC00F0046A0050016E5908CB
:1008A000D8A008D0FDEC00F002500310D8B402D05C
:1008B000010E046E04C000F08DEC00F0CFEF00F0EC
:1008C000D7EC18F08DEC00F001C000F08DEC00F0DA
:1008D000CFEF00F0A1EC00F047C000F08DEC00F08D
:1008E000CFEF00F075EC00F0A1EC00F089EC0DF01A
:1008F000A1EC00F0D9EC11F0D1EC11F024EC1CF0DB
:10090000A1EC00F0005003E153EC1AF004D0FA0817
:10091000FA0ED8A0006EA1EC00F01580CFEF00F029
:10092000A1EC00F0A9EC0DF01580CFEF00F075EC14
:1009300000F000C001F075EC00F000C002F075ECB2
:1009400000F001C02FF002C030F000C031F0CFEF56
:1009500000F075EC00F000C022F0CFEF00F075EC75
:1009600000F00050026E75EC00F00050016E75EC66
:1009700000F00250236E0150246E0050256ECFEF20
:1009800000F0830E006E8DEC00F0060E006E8DEC14
:1009900000F0CFEF00F0A7EC00F0C8EC1AF075EC17
:1009A00000F000C001F00152D8B406D0010675EC89
:1009B00000F0D9EC1AF0F7D7E1EC1AF0129A12987D
:1009C000CFEF00F0A7EC00F0A9EC1AF08DEC00F0EE
:1009D00000C001F00152D8B406D00106BEEC1AF0F6
:1009E0008DEC00F0F7D7129A1298CFEF00F0FF00CD
:1009F00075EC00F000C022F175EC00F000C023F1AE
:100A0000CFEF00F075EC00F000C024F175EC00F0C1
:100A100000C025F1CFEF00F075EC00F000C026F12A
:100A200075EC00F000C027F1CFEF00F075EC00F09E
:100A300000C028F175EC00F000C029F1CFEF00F004
:100A400075EC00F000C02AF175EC00F000C02BF14D
:100A5000CFEF00F075EC00F000C02CF175EC00F069
:100A600000C02DF1CFEF00F075EC00F000C02EF1CA
:100A700075EC00F000C02FF1CFEF00F075EC00F046
:100A800000C030F175EC00F000C031F1CFEF00F0A4
:100A900075EC00F000C032F175EC00F000C033F1ED
:100AA000CFEF00F075EC00F000C034F175EC00F011
:100AB00000C035F1CFEF00F075EC00F000C001F0A0
:100AC00075EC00F001C020F000C021F0CFEF00F085
:100AD0008E0E006E8DEC00F05B0E006E8DEC00F063
:100AE000006A8DEC00F0006A8DEC00F0CFEF00F0B2
:100AF000A7EC00F0E5EC1BF08DEC00F0129A1298D8
:100B0000CFEF00F075EC00F0A7EC00F0F5EC1BF077
:100B1000129A1298CFEF00F075EC00F000C001F0CF
:100B200075EC00F00150040838E3000EFB6EFA6A21
:100B3000D8900136FA360136FA364A0E01260B0EE7
:100B4000FA22000EFB220150F96EAFEF05F0B5EF6F
:100B500005F0BBEF05F0C1EF05F0C7EF05F0740E2F
:100B6000016E380E026E000E1ED0770E016E380E2A
:100B7000026E000E18D0900E016E380E026E000E3E
:100B800012D0860E016E380E026E000E0CD0A00E32
:100B9000016E380E026E000E06D0000E006E8DEC57
:100BA00000F0CFEF00F0F86E02C0F7FF01C0F6FFD3
:100BB00009000050F55ED8A0F0D7F626000EF72207
:0A0BC000F8220800F5CF00F0EAD794
:060BCA00010E326E400E28
:100BD000336E080E346E400E356E0101010E3A6F11
:100BE000120003C0DCFF08C0DCFF01013A2F2DD04A
:100BF00000C0DCFF01C0DCFF02C0DCFF1C0E086E81
:100C0000006A016A026A036AEBEC11F0EBEC11F086
:100C1000006A100E016E400E026E036A200E13B8B9
:100C2000016EEBEC11F0006A016A026A036AEBECF8
:100C300011F013AA04D0EBEC11F0EBEC11F0DDCFC6
:100C400002F0DDCF01F0DDCF00F000C0DCFF01C01D
:100C5000DCFF02C0DCFF036AD890003601360236A2
:100C600003360036013602360336003601360236C8
:100C7000033600360136023603361C0E086EEBECE6
:100C800011F0DDCF02F0DDCF01F0DDCF00F0DDCFE0
:100C900008F0DDCF03F0120000C0DCFF01C0DCFF74
:100CA00002C0DCFF006A016A026A9BDFDDCF02F04E
:100CB000DDCF01F0DDCF00F0120013AA01D0ECDF90
:100CC000120013AA03D0E8DFE7DFE6DF120002C05C
:100CD000DCFF03C0DCFF08C0DCFFDEDF010E006EBE
:100CE000016A0C0E086EEBEC11F0100E086E55EC5C
:100CF00012F0E3DFDDCF08F0DDCF03F0DDCF02F04F
:100D00001200020E1CD0120E1AD0220E18D0320E73
:100D100016D0420E14D0520E12D0620E10D0720EA7
:100D20000ED0820E0CD0920E0AD0A20E08D0B20EB7
:100D300006D0C20E04D0D20E02D0E20E00D000C007
:100D4000DCFF01C0DCFF02C0DCFF026E02340036B3
:100D500001360236023400360136023602340036DD
:100D60000136023602340036013602363ADFDDCF74
:100D700002F0DDCF01F0DDCF00F01200000E1ED03A
:100D8000010E1CD0020E1AD0030E18D0040E16D07D
:100D9000050E14D0060E12D0070E10D0080E0ED07D
:100DA000090E0CD00A0E0AD00B0E08D00C0E06D07D
:100DB0000D0E04D00E0E02D00F0E00D000C0DCFFCE
:100DC00001C0DCFF02C0DCFFEECF00F0EDCF01F090
:100DD0000090026AD890003601360236003601369D
:100DE00002360036013602360012880E0212F9DE93
:100DF000DDCF02F0DDCF01F0DDCF00F01200000EFC
:100E00001ED0010E1CD0020E1AD0030E18D0040EF4
:100E100016D0050E14D0060E12D0070E10D0080EF4
:100E20000ED0090E0CD00A0E0AD00B0E08D00C0EF4
:100E300006D00D0E04D00E0E02D00F0E00D000C052
:100E4000DCFF01C0DCFF02C0DCFFEECF00F0EDCF25
:100E500001F00090026AD890003601360236003662
:100E6000013602360036013602360012800E0212BA
:100E7000B8DEDDCF02F0DDCF01F0DDCF00F01200F3
:100E800001EE2CF097DF08DF120001013A51F00B60
:100E9000010ED8B43A6F120000C0DCFF01C0DCFFC5
:100EA0000A0E006E016A3BDF34C000F035C001F06D
:100EB00038DF040E006E400E016E35DF32C000F0E8
:100EC00033C001F032DF550E006E016A30DFAA0E2A
:100ED000006E016A2EDF006A016A2DDF006A016A76
:100EE0002CDFCEDF296A2A6A2B6ADDCF01F0DDCF45
:100EF00000F0120000C0DCFF01C0DCFF02C0DCFF1C
:100F000026502918006E27502A18001228502B1836
:100F100000101FE014B80CD028502B6E006E016A30
:100F20000CDF2650296E006E27502A6E016E0ED0FF
:100F30007F0E006E016A01DFD8902634006E2734E0
:100F4000016E2F500026305001220112F4DE98DF8E
:100F5000B4DEDDCF02F0DDCF01F0DDCF00F0120016
:100F600001013A69149EDDEC19F013B80BD094DE40
:100F700093DE006A010E016E040E026EF1EC05F0C4
:100F80008BDE16D0006A016A026A036A050E086EDB
:100F9000EBEC11F081DE91DE90DE006A020E016E54
:100FA000040E026EF1EC05F077DE76DE86DE85DE7D
:100FB00001013A6971DF49EF0EF000C0DCFF01C0AA
:100FC000DCFF2650006EFC0B266E01013B6F27C034
:100FD0003CF128C03DF18EDF00C026F09D0E006E72
:100FE000DB0E016EBA0E026EF1EC05F055DE54DE3A
:100FF00068DEBD0E006E016ABA0E026EF1EC05F0FD
:101000004BDE4ADE5EDE9D0E006ED30E016EBA0E22
:10101000026EF1EC05F040DE3FDE53DE3D0E006E69
:10102000010E016EBA0E026EF1EC05F035DE34DE13
:1010300048DE01EE2AF0A4DE4ADE00C03EF101C027
:101040003FF101EE2AF09EDE42DE00C041F101C018
:1010500042F101EE2AF09CDE3ADE00C040F101C010
:1010600043F12950040F296E000E2A22148EDDCF81
:1010700001F0DDCF00F012003EC100F03FC101F0F1
:1010800040C102F041C103F042C104F043C105F088
:10109000120014B821D014AE0CD02650FC0B006EF8
:1010A00001013B1906E127503C1903E128503D1985
:1010B00001E083DF2650030B01EE3FF0E8B201EEC2
:1010C00042F0E8B005D0EDCF01F0EFCF00F01AD03C
:1010D000ECCF00F0016A16D00DDF2628296E000E35
:1010E00027200F0B2A6E2B6ABD0E006E016ABA0E06
:1010F000026EF1EC05F0D0DDCFDDE3DD01EE2AF08C
:101100003FDEE5DD90EF0FF0FA0E006E016AF9DDCB
:1011100001EE2CF033DE006A016AF3DDBDDD370E2F
:10112000006EC80E016EBB0E026EF1EC05F0B4DD70
:10113000B3DD010E006E180E016EBB0E026EF1ECF7
:1011400005F0AADDA9DD270E006EC80E016EBB0EEC
:10115000026EF1EC05F0A0DD9FDD020E006E180EB0
:10116000016EBB0E026EF1EC05F096DD95DD0068B8
:101170000168C7DD01EE2AF001DE01EE32F018DE73
:1011800001EE34F017DE01EE2EF00CDE85DD84DD9D
:1011900001EE30F009DE80DD01EE30F007DE290ED1
:1011A000006EE70E016EA80E026EF1EC05F074DD24
:1011B00073DD72DD71DD70DDCD6A0F0E006E016AC8
:1011C0002050005E2150015A02E20068016801C00F
:1011D000CFFF00C0CEFF9E90CD80040E2926000ECA
:1011E0002A22040E2626000E272228229EA0FED7A1
:1011F00053DD01EE2EF003DE4FDD01EE2AF0BEDD01
:1012000066DDF00E00168F0E01140010F1E14D0E98
:10121000006E016AB00E026EF1EC05F0120035DED0
:10122000149E13B80FD03B0E006E016E880E026E36
:10123000F1EC05F03C0E006E3B0E016E880E026E66
:10124000F1EC05F0610E006EE70E016EA80E026E65
:10125000F1EC05F021DD20DD1FDD1EDD1F50446EA9
:10126000456A466ADDEC19F013B80BD0610E006ECA
:10127000E70E016EA90E026EF1EC05F00DDD0CDD3E
:1012800014D00ADD006A3B0E016E800E026EF1EC96
:1012900005F0200E006E3C0E016E880E026EF1EC21
:1012A00005F0FADC14DD01BEECD71200149E14B870
:1012B0001DD026B034D02B6A1DDE23DD080E006E53
:1012C0003B0E016E880E026EF1EC05F0800E006E92
:1012D0001E0E016EBB0E026EF1EC05F0DDDCDCDCF7
:1012E0009EDF020E2926000E2A2219D003DE09DD18
:1012F000090E006E3B0E016E880E026EF1EC05F0D9
:10130000800E006E1E0E016EBB0E026EF1EC05F03B
:10131000C3DCC2DC84DF010E2926000E2A22E0EFA6
:101320000FF0E8DD00C003F001C000F002C001F0E2
:10133000EADC13BA08D02204261405E101EE2CF0F1
:1013400039DDAADCA9DC120000C004F001C000F005
:1013500002C001F0DADC03C000F004C001F0DBDC05
:1013600013BAD2D6B70E006ECE0E016EBB0E026E51
:10137000F1EC05F091DC90DC810E006E1E0E016E2A
:10138000BB0E026EF1EC05F087DC86DCA70E006E6A
:10139000CE0E016EBB0E026EF1EC05F07DDC7CDC46
:1013A000820E006E1E0E016EBB0E026EF1EC05F099
:1013B00073DC72DC120000C003F001C000F002C058
:1013C00001F0A1DC120013BABFD700C004F001C0C5
:1013D00000F002C001F099DC03C000F004C001F08D
:1013E0009ADCB70E006ECE0E016EBB0E026EF1ECF3
:1013F00005F052DC51DC810E006E1E0E016EBB0E3C
:10140000026EF1EC05F048DC47DCA70E006ECE0E54
:10141000016EBB0E026EF1EC05F03EDC3DDC820E8F
:10142000006E1E0E016EBB0E026EF1EC05F034DC98
:1014300033DC080E2626000E27222822080E292635
:10144000000E2A222204261404E101EE2EF0AADC6A
:04145000E6DE1200C2
:0C14540020042E043B044904FFFFFFFFAE
:10146000FFFFFFFFFFFFFFFFFFFFFFFFFFFFFFFF8C
:10147000FFFFFFFFFFFFFFFFFFFFFFFFFFFFFFFF7C
:10148000FFFFFFFFFFFFFFFFFFFFFFFFFFFFFFFF6C
:10149000FFFFFFFF4B684C6A1198119E0101DC0EA3
:1014A000746F050E756F6D6A160E6F6E6B681200A5
:1014B00000C0DCFF01C0DCFF02C0DCFF03C0DCFFBA
:1014C00082D86D86118E760E006E010E016E0A0EA8
:1014D000026E150E036EF6EC15F05FEC16F0DDCF24
:1014E00003F0DDCF02F0DDCF01F0DDCF00F0120020
:1014F0004BC000F0D3EC16F011AA02D0C7EC1AF0E2
:101500004B686D6A119E1198120048C04BF04C6AEE
:10151000119C0101DC0E746F050E756F5FEC16F007
:1015200044DA11B0FBD75FEC16F033EC10F0F6D7CD
:1015300000C0DCFFEFA644D0040EEBCF00F0050E98
:10154000EB500010D8A43CD0010EEBCFE1FF000E11
:10155000EFB4040FE126040EE26EEF9CE7503C0B63
:10156000340AD8B4EF8CEF9AE650030B006E050EE8
:1015700000C0EBFF040EE7CFEBFFE6500010D8B43D
:10158000EF8AE650EF34060B090FEBCFE5FFFF0FB4
:10159000EBCFE5FF020EEBCFE5FF030EEB50E76E5E
:1015A000E78E010EEFB0030EEFB2020EEF1AEF96C8
:1015B000EFB8EF86EF98EF74060EEB6A010FEB6A57
:1015C000DDCF00F0120000C0DCFF01C0DCFF11988D
:1015D0001186706A716A726A736A746A756A766A69
:1015E000776A786A796A7A6A7B6A7C6A7D6A7E6AD7
:1015F0007F6A04EE00F0200E006EEE6A002EFDD72A
:101600000401380E206F000E216F080E226F236B2D
:10161000246B256B560E286F040E296F5E0E2A6F01
:10162000040E2B6F660E2C6F040E2D6F180E2E6F8E
:101630002F6B080E306F080E316F326B336B346BCB
:101640006E0E356F040E366F760E376F040E386FE0
:101650007E0E396F040E3A6F380E3B6F100E3C6FE2
:10166000400E3D6F3E6B3F6B406B860E436F040E2A
:10167000446FC60E456F040E466F060E476F050E8B
:10168000486F180E496F020E4A6F180E4B6F400ECE
:101690004C6F4D6B4E6B4F6B460E506F050E516F7E
:1016A000860E526F050E536FC60E546F050E556FA2
:1016B00004EE20F03DDF3CDF6E6A686A696A6D8C7B
:1016C000E90E6D166D866D9C68A602D06896FCD7F3
:1016D000160E706E1182DDCF01F0DDCF00F012002A
:1016E0000401380E3B6F100E3C6F400E3D6F3E6B99
:1016F0003F6B406B860E436F040E446FC60E456F02
:10170000040E466F060E476F050E486F180E496FA0
:10171000020E4A6F180E4B6F400E4C6F4D6B4E6BA6
:101720004F6B460E506F050E516F860E526F050EB1
:10173000536FC60E546F050E556F04EE3BF0F8DE86
:10174000F7DE160E706E1E0E716E1188120000C04C
:10175000DCFFEFA64CD0EFBE4AD0050EEBCF00F079
:10176000060EEB500012D8A406D0010EEBB402D046
:10177000EFAC3DD0EF9C020EEBCFE1FF030EEFB4D8
:10178000040FE126040EE26EEF34060B080FEBCFD8
:10179000E5FFFF0FEBCFE5FF050EEBCFE5FF060EF4
:1017A000EB500809E76E010EEBB0E78CEB70E78EAB
:1017B000010EEBA20AD0EB94030EEBCF00F0050E66
:1017C000EB50001A02E1010EEB84010EEFB0030EA4
:1017D000EFB2020EEF1AEF96EFB8EF86EF98EF74C4
:1017E000EF9AEFBCEF8A050EEB6A010FEB6ADDCFD3
:1017F00000F01200F00E0116030E0112EFAC08D03B
:10180000060EEB52D8A404D00752EB52D8B4018490
:10181000EFBA26D0019201B823D00190EF34060B25
:10182000080FEBCFE1FF010FEBCFE2FF060EEB500D
:10183000E126070EEB50E222060EEB2A070ED8B087
:10184000EB2A040EEB06EBCF00F0050ED8A0EB065A
:10185000EB500012E7CF00F0D8A402D0EF8A68DE88
:10186000120002C0DCFF03C0DCFFF00E0116030E05
:101870000112EFBA2ED0019201BAEF8E01B829D031
:10188000019001AAEF9EEF34060B070FEBCFE1FFAB
:10189000010FEBCFE2FF050EEB50E126060EEB50F9
:1018A000E22200C0E7FF050EEB2AEBCF02F0060EA6
:1018B000D8B0EB2AEBCF03F0030EEB500218D8A4FC
:1018C00007D0040EEB500318D8A402D0EF8AEF9E85
:1018D0003EDFDDCF03F0DDCF02F01200F00E011687
:1018E000030E0112EFBC14D0019201B811D0EF9E8B
:1018F00001BC0AD0EFBA08D0050EEB52D8A407D02D
:10190000060EEB52D8A403D00190EF8CEF8A1FDFB4
:10191000120002C0DCFFF00E0116030E0112050ECC
:10192000EBCF02F0060EEB500210D8A407D00184D2
:10193000EF50180B180AD8B4018609D0EFA607D0CB
:10194000019201B804D001900184EF9E00DFDDCF49
:1019500002F0120004EE20F04DD77080120004EE69
:101960002EF07FD704EE2FF0EF90120004EE2FF050
:10197000EF80120004EE2EF0CCD704EE2EF0AED79E
:1019800004EE3BF037D704EE49F06BD704EE4AF093
:10199000EF90120004EE4AF0EF80120004EE49F0DE
:1019A000B8D700C073F111841200119068A206D05C
:1019B0001180118C6A506A6A4C12120068A003D020
:1019C000118001DE120068AC02D0689C118C68A600
:1019D00025D06CCF00F06896118C140EF76E000EB7
:1019E000F86E00403E0B540FF66E000EF722F82200
:1019F0000900F5CFE9FF0800F5BE10D0F5CFEAFFEA
:101A00001180EF300018020B080ED8A4100EEF1250
:101A100000B402D08DDD12009ADE120068AA03D055
:101A2000689A1180120068A803D06898118012008B
:101A300068A403D0689411801200120011AE20D067
:101A400011AC07D0119C0101E80E746F030E756F85
:101A500017D001010050745F000E755B04E37451F0
:101A60007511D8A40DD06D6A119E1198710E446E37
:101A7000170E456E466A79EC19F0DDEC19F0FF009F
:021A8000120052
:0E1A8200206A216A010E326E400E336E080E8D
:101A9000346E400E356E1398139A0101A60E226F14
:101AA0000F0E236FA90E246F0F0E256FAA0E266F3F
:101AB0000F0E276FA80E286F0F0E296F840E2A6F46
:101AC000070E2B6F320E2C6F2D6B600E2E6F070ED4
:101AD0002F6F660E306F070E316F620E326F070E7A
:101AE000336F640E346F070E356F12001C6A1D6A67
:101AF0001E6A3C0E1F6E266A276A286A296A2A6AAD
:101B00002B6A2C6A2D6A2E6A2F6A306A316AB9DF15
:101B1000120013BE04D027EC1CF0DDEC19F0CBEC66
:101B200011F0DDEC19F0D3EC11F0DDEC19F063EC01
:101B30001AF013AE04D0DDEC19F027EC1CF02D0EDA
:101B4000446E010E456E466A79EC19F0DDEC19F031
:101B50001200D9EC11F0D1EC11F053EC1AF0DDECDD
:101B600019F024EC1CF0DDEC19F02D0E446E010E82
:101B7000456E466A79EC19F01200262A000E2722DB
:101B800028221200292A000E2A222B22148C12004D
:101B900000C0DCFF01C0DCFF02C0DCFF03C0DCFFD3
:101BA00008C0DCFF2CC029F02DC02AF02EC02BF07D
:101BB000149A149CDDEC19F0ACDFDDEC19F01C502C
:101BC000D8B432D00D08D8A02FD01B0EFA6E000E5C
:101BD000FB6E1C04E846E846030BFA26D8B0FB2A45
:101BE0001C04E846E846FC0BF40FD8B0FA2AD8B03B
:101BF000FB2AF96E54EF0EF05CEF0EF05DEF0EF085
:101C00005CEF0EF05CEF0EF099EF0EF0D5EF0EF0FA
:101C1000D9EF0EF064EF0EF0E2EF0EF0B7EF0EF03A
:101C2000E3EF0EF083EF0EF01C50D8B432D00D0865
:101C3000D8A02FD01C0EFA6E000EFB6E1C04E846D6
:101C4000E846030BFA26D8B0FB2A1C04E846E8460F
:101C5000FC0B5E0FD8B0FA2AD8B0FB2AF96E49EF18
:101C60000EF049EF0EF049EF0EF0B0EF07F049EF3C
:101C70000EF049EF0EF0B0EF07F0B0EF07F049EFCC
:101C80000EF0B0EF07F049EF0EF0B0EF07F049EFBC
:101C90000EF0DDCF08F0DDCF03F0DDCF02F0DDCFB9
:101CA00001F0DDCF00F01200148A2BEC1CF0DDEC0B
:101CB00019F089EC1AF0B8D7148A89EC1AF0DDEC27
:101CC00019F02BEC1CF0B0D7149A89EC1AF0DDEC6B
:101CD00019F0070E446E456A466A79EC19F0DDEC9E
:101CE00019F0500E006E480E016E430E026E4D0E3E
:101CF000036E200E086EEBEC11F0006A010E086E08
:101D0000EBEC11F091D7148A27EC1CF0DDEC19F004
:101D100089EC1AF0DDEC19F0B20E006EC20E016E05
:101D2000120E026E0A0E036E200E086EEBEC11F01E
:101D30007BD7148A27EC1CF0DDEC19F063EC1AF069
:101D4000DDEC19F089EC1AF0DDEC19F032EC1CF046
:101D5000B20E006EC20E016E120E026E0A0E036EFD
:101D6000200E086EEBEC11F02BEC1CF05DD7148A02
:101D700027EC1CF0DDEC19F063EC1AF0DDEC19F047
:101D800089EC1AF0DDEC19F02BEC1CF0DDEC19F00D
:101D9000B20E006EC20E016E120E026E0A0E036EBD
:101DA000200E086EEBEC11F03FD7346A400E356E12
:101DB00010D0040E326E400E336E040E346E400EA0
:101DC000356E07D006D0010E346E400E356E138A84
:101DD00000D01388148A27EC1CF0DDEC19F063ECBA
:101DE0001AF0DDEC19F089EC1AF0DDEC19F0070EB1
:101DF000446E456A466A79EC19F0DDEC19F032EC74
:101E00001CF0DDEC19F00E0E446E456A466A79EC62
:101E100019F0DDEC19F0B20E006EC20E016E120E5A
:101E2000026E8A0E036E200E086EEBEC11F02BECA6
:101E30001CF0DDEC19F0330E446E010E456E466A5F
:101E400079EC19F0F1D600C0DCFF01C0DCFF02C064
:101E5000DCFF03C0DCFF08C0DCFF1E50D8B424D078
:101E60000608D8A021D01E0EFA6E000EFB6E1E04CE
:101E7000E846E846030BFA26D8B0FB2A1E04E846DB
:101E8000E846FC0B900FD8B0FA2AD8B0FB2AF96EBE
:101E900054EF0FF054EF0FF048EF19F054EF0FF03C
:101EA00054EF0FF054EF0FF0DDCF08F0DDCF03F06B
:101EB000DDCF02F0DDCF01F0DDCF00F0120002C077
:101EC000DCFF03C0DCFF08C0DCFF1E50D8B428D004
:101ED0000808D8A025D01F0EFA6E000EFB6E1E0457
:101EE000E846E846030BFA26D8B0FB2A1E04E8466B
:101EF000E846FC0B000FD8B0FA2AD8B0FB2AF96EDE
:101F0000BEEF17F0E9EF13F04BEF19F049EF08F0CF
:101F1000E9EF13F02EEF15F016EF17F039EF15F08B
:101F2000DDCF08F0DDCF03F0DDCF02F0120000C0FE
:101F3000DCFF01C0DCFF02C0DCFF03C0DCFF08C027
:101F4000DCFF14901492149414961F50446E456A4A
:101F5000466A1D50D8B434D00E08D8A031D01F0E18
:101F6000FA6E000EFB6E1D04E846E846030BFA26E7
:101F7000D8B0FB2A1D04E846E846FC0B880FD8B011
:101F8000FA2AD8B0FB2AF96EC9EF17F0FEEF17F066
:101F900054EF19F056EF09F000EF18F010EF18F0B9
:101FA00013EF18F044EF14F015EF18F00FEF18F0DE
:101FB00017EF18F080EF15F02AEF17F093EF15F0F8
:101FC000DDCF08F0DDCF03F0DDCF02F0DDCF01F093
:061FD000DDCF00F012005D
:0A1FD6000101BA0E5B6F200E5C6F74
:101FE000000E5D6F010E5A6F1200016ABAEC0CF020
:101FF00001B602D019D8F9D712006D98016ABAEC6F
:102000000CF001B402D010D8F9D7B6EC0CF01200E5
:10201000200E016EAFEC0CF001A002D005D8F8D76D
:102020000101714B722B120000C053F101C054F139
:1020300002C055F103C056F104C057F105C058F174
:1020400006C059F1FC041F0B016E01015A6F01EE2D
:102050005BF0FDCFEEFFFECFEEFFFFCFEEFF060001
:10206000012EF7D7120011A202D0119226D0010141
:1020700001EE5AF05A51016E030DF350E926014E5C
:1020800008D00500ED50FF6EED50FE6EED50FD6E78
:10209000F6D753C100F054C101F055C102F056C14A
:1020A00003F057C104F058C105F059C106F05D5165
:1020B000FB6E5C51FA6E5B51F96E01016F6B706BD8
:1020C00011AA03D0C7EC1AF0119A080E026E016A29
:1020D000AAEC0CF001A002D0A7DFF9D701A402D02E
:1020E000080E026E01EE67F002500808E92600C0F3
:1020F000EFFF022EECD70101716B726B000EFB6ECD
:10210000210EFA6E68510C08D8A023D06835E83447
:10211000FC0B1E0FD8B0FA2AD8B0FB2AF96EA9EF33
:1021200010F0A9EF10F0A9EF10F0A9EF10F0A9EF4F
:1021300010F08CEF11F0F0EF10F0A9EF10F09BEF22
:1021400011F094EF11F0A3EF11F0A0EF11F0A9EF4F
:1021500010F06D98ADEC0CF0B8D74FDF01010350D3
:102160006E5DD8A006D0D8A408D002506D5DD8B05E
:1021700004D06DC102F06EC103F002500310D8B458
:1021800012D004C0F6FF05C0F7FF06C0F8FF080034
:10219000F5CF00F03DDF042A000E052206220206DC
:1021A000D8A00306EAD701016D51070BD8A408D0C7
:1021B0006D517119D8A404D06E517219D8B485D755
:1021C000016ABDEC0CF001A280D72EDFF9D715DF34
:1021D000400E016EBDEC0CF001A077D725DFF8D7DB
:1021E00001016A51FF0FD8A40DD06953D8A4B1D70B
:1021F000EC0E046E360E056E000E066E120E026EAA
:10220000036AABD7FF0FD8A40DD06953D8A4A1D7C8
:10221000FE0E046E360E056E000E066E200E026E69
:10222000036A9BD7FF0FD8A494D76905D8B45DD0B3
:1022300069510308D8A08DD76951D8A4FF0FE824AD
:102240004C0FF66E370ED8B0010FF76E000ED8B0F7
:10225000010FF86E0900F5CF04F00800F5CF05F086
:102260001E0E0426370E0522000E066E000E0622F4
:1022700004C0F6FF05C0F7FF06C0F8FF0800F5CF61
:1022800002F0036A6951D8B468D76E53D8A405D058
:1022900002506D5DD8A06DC102F0AFDE0250D8B41F
:1022A00082D7F5CF00F0B4DE024E7DD7030E006E6C
:1022B000AFDE024E78D7020E0426000E052206225B
:1022C00004C0F6FF05C0F7FF06C0F8FF0800F5CF11
:1022D00000F09EDE024E67D7006A9ADE024E63D798
:1022E000042A000E05220622EBD787DEA9EC1AF09D
:1022F000118A0050026E020F006E8ADE030E006E1D
:1023000087DE025205E00206BEEC1AF081DEF9D744
:10231000C7EC1AF0119A47D770DE400EBDEC0CF0F6
:1023200064DE69C16EFFD1D6010169516F6F006E25
:1023300070EC0BF04CD76FC100F06ADE5EDE33D775
:1023400069C170F144D770C100F062DE56DE2BD750
:102350008A92939200D08A909390948012009380F6
:10236000138C8B909490020E446E456A466A79EC09
:1023700019F0DDEC19F081B00CD08B80020E446EA8
:10238000456A466A79EC19F0DDEC19F081A001D0BC
:10239000139C948012008A92939212008A829392E4
:1023A0001200938212008A90939012008A80939078
:1023B000120093801200006A81B0008012008A82AD
:1023C000939200008A80939000008A92939200007A
:1023D0008A909390F4D700C0DCFF01C0DCFF02C0FC
:1023E000DCFF03C0DCFF08C0DCFF00A00ED08A8049
:1023F00093908A82939203320232013200328A929F
:102400009392084E11D000B0F2D78A9093908A82AE
:10241000939203320232013200328A929392084E32
:1024200003D000A0F2D7E3D79380DDCF08F0DDCF53
:1024300003F0DDCF02F0DDCF01F0DDCF00F01200C0
:1024400008C0DCFF060E086EC6DFDDCF08F0120004
:1024500000C0DCFF01C0DCFF08C0DCFF0036013635
:102460000090019E100E086EB6DFDDCF08F0DDCFC4
:1024700001F0DDCF00F0120000C0DCFF01C0DCFF86
:1024800002C0DCFF08C0DCFF0036013602360090D7
:10249000029E180E086E9FDFDDCF08F0DDCF02F040
:1024A000DDCF01F0DDCF00F0120008C0DCFF09C075
:1024B000DCFF8A9293929380210E096E8A82939216
:1024C000D8900332023201320032090681B0038E05
:1024D0008A929392082EF2D7094E06D0D8900332F2
:1024E000023201320032F8D7DDCF09F0DDCF08F03B
:1024F000120002C0DCFF03C0DCFF08C0DCFF100ECE
:10250000086ED3DF013200323F0E0116DDCF08F036
:10251000DDCF03F0DDCF02F0120000C0DCFF01C010
:10252000DCFF080E016E00BE0BD08A9093908A8269
:10253000939200368A929392014E0ED000AEF5D758
:102540008A8093908A82939200368A929392014E67
:1025500003D000AEEAD7F4D79380DDCF01F0DDCF12
:1025600000F0120000C0DCFF01C0DCFF02C0DCFF95
:1025700003C0DCFF180E036E02BE0DD08A9093904C
:102580008A8293920036013602368A929392034EE3
:1025900010D002AEF3D78A8093908A82939200364D
:1025A000013602368A929392034E03D002AEE6D7EA
:1025B000F2D79380DDCF03F0DDCF02F0DDCF01F065
:1025C000DDCF00F0120000C0DCFF01C0DCFF02C064
:1025D000DCFF026AD890003601360236C3DFDDCF59
:1025E00002F0DDCF01F0DDCF00F0120000C0DCFF13
:1025F00001C0DCFF02C0DCFF026A3F0E0116D8906A
:1026000000360136AFDFDDCF02F0DDCF01F0DDCFE8
:1026100000F0120000C0DCFF01C0DCFF02C0DCFFE4
:10262000016A026AD8900036013602369BDFDDCFA0
:1026300002F0DDCF01F0DDCF00F0120003C0DCFFBF
:102640008A9293929380180E036E8A829392D89006
:1026500000360136023681B000808A929392032EB2
:10266000F4D7DDCF03F0120002C0DCFFE7DF013258
:1026700000323F0E0116DDCF02F0120001C0DCFF78
:1026800002C0DCFFDBDF01320032DDCF02F0DDCF44
:0426900001F0120043
:0C26940008C0DCFF140E086EEBEC11F027
:1026A000DDCF08F0120000C0DCFF01C0DCFF02C07B
:1026B000DCFF08C0DCFF026AD89000360136023623
:1026C0000036013602360036013602360036013653
:1026D0000236140E086EEBEC11F0DDCF08F0DDCF02
:1026E00002F0DDCF01F0DDCF00F0120000C0DCFF12
:1026F00001C0DCFF08C0DCFF006A040E086EEBECD2
:1027000011F00E0E016E0250006E100E086EEBEC12
:1027100011F0006A040E086EEBEC11F06E0E016E03
:102720000350006E100E086EEBEC11F0DDCF08F0D8
:10273000DDCF01F0DDCF00F0120000C0DCFF01C0F2
:10274000DCFF800E016E02340E0B011203C000F09C
:10275000AADFDDCF01F0DDCF00F0120000C0DCFF0A
:1027600001C0DCFF900E016E02340E0B011203C09B
:1027700000F099DFDDCF01F0DDCF00F0120002C0E4
:10278000DCFF03C0DCFF14AA0CD026502918D8A403
:1027900008D027502A18D8A404D028502B18D8B411
:1027A00013D0148A2650296E026EF60E036E9EDF39
:1027B00027502A6E026EF70E036E98DF28502B6E9C
:1027C000026EF80E036E92DFDDCF03F0DDCF02F074
:1027D000120014B810D0D3DF090E006E016A0C0E7F
:1027E000086EEBEC11F0080E086E55EC12F0C2EC1E
:1027F0000DF090EF0FF0070E026E22C103F0AEDF76
:10280000060E026E22C103F0A9DF24C103F026C028
:1028100002F06CDF26C103F027C002F067DF000E74
:10282000026E22C103F089DF500E016E28C100F054
:102830003ADF500E006EEF0E016E060E026E2ADFBA
:10284000006A016A026A26DF020E006E016A0C0E3F
:10285000086EEBEC11F0080E086E55EC12F090EFDC
:102860000FF000C0DCFF01C0DCFF070E026E22C1CA
:1028700003F063DF060E026E22C103F06FDFDDCFCF
:1028800001F0DDCF00F07BD714B84BD026B005D0D7
:1028900000C039F174DFE0EF0FF000C001F039C182
:1028A00000F0026AD8900036013602360036013652
:1028B0000236003601360236003601360236140E74
:1028C000086E2204036E26140318D8B40BD00D0E24
:1028D0000012EBEC11F0020E2926000E2A222B2208
:1028E000E0EF0FF00F0E0012EBEC11F0006A030E98
:1028F000086EEBEC11F0CEEC11F079EC19F0DDEC98
:1029000019F0CBEC11F0020E446E79EC19F0DDEC0D
:1029100019F0006A016A100E086EEBEC11F0E0EF9E
:102920000FF024C103F026C002F0E0DE26C103F060
:1029300027C002F0DBDE28C103F000C002F0D6DEC3
:10294000010E026E22C103F0F8DE006A016A026A1B
:10295000A1DE006A016A026A9DDE79EC19F0E0EFFF
:022960000FF076
:0E29620000C0DCFF01C0DCFF14AA0AD02A501E
:10297000275CD8A006D0D8A40BD02950265CD8B0AC
:1029800007D0296A2A6A148A160E006E20EC12F00B
:1029900027AE0CD02ABE0AD0296A800E2A6E006AA1
:1029A00020EC12F0006A016A28EC12F02950261877
:1029B000006E2A5027180010D8B407D0060E006EFB
:1029C00020EC12F0C2EC0DF0F1D7DDCF01F0DDCF3D
:1029D00000F0120000C0DCFF01C0DCFF02C0DCFF21
:1029E0002750016E2650006E14A804D02F500026E8
:1029F0003050012214AA1DD029500018026E2A500E
:102A00000118021024E02A500118800B12E1292835
:102A1000026E000E2A2001180CE10250001809E194
:102A200000C029F001C02AF0060E006E20EC12F062
:102A30000ED000C029F001C02AF01D0E006E20EC5F
:102A400012F026C000F0026A3CEC12F0148ADDCFCE
:102A500002F0DDCF01F0DDCF00F0120082DF040EC6
:102A600014B8050E006E20EC12F079EC12F090EF25
:102A70000FF0B0DF240E006E20EC12F079EC12F0B3
:102A80002A50800B026E292A000E2A207F0B02108A
:102A90002A6E90EF0FF065DF0050026E020E14B840
:102AA000030E006E20EC12F00250006E28EC12F0C3
:102AB00014B810D02204006E26140018D8B40AD01E
:102AC0002750245CD8A006D0D8A418D02650235C68
:102AD000D8B014D037C100F020EC12F079EC19F026
:102AE00014A00CD038C100F0DDEC19F020EC12F08D
:102AF000020E446E456A466A79EC19F0E0EF0FF079
:102B00000101180E376F0A0E386F148027BE02D0ED
:102B100014A8C1D71F0E446E456A466A0101080E0B
:102B2000376F1490B8D756DF2ABE32D02204026E17
:102B3000261402180EE000C002F0220E006E20ECF7
:102B400012F002C000F028EC12F0C2EC0DF0E0EF41
:102B50000FF000C002F0020E006E20EC12F002C076
:102B600000F028EC12F0180E006E20EC12F079EC58
:102B700019F00A0E006EDDEC19F020EC12F0030ED5
:102B8000446E456A466A79EC19F0149AE0EF0FF04A
:102B900000C002F0020E006E20EC12F002C000F045
:102BA00028EC12F0080E006E20EC12F01F0E446E9E
:0C2BB000456A466A79EC19F0E0EF0FF07E
:042BBC00486A010161
:102BC000450E4D6F020E4E6F010EE8CF45F2000E1E
:102BD0004F6F020E506F000EE8CF00F2970E516F4C
:102BE000010E526F000EE8CF97F1120000C0DCFF1B
:102BF00001C0DCFF05C0DCFF030E056E11EE4DF0D9
:102C0000E6CFE9FFE6CFEAFFEF5203E0052EF8D763
:102C1000FF00DDCF05F000C0E1FF01C0E2FF00C012
:102C2000E6FF01C0E6FF02C0E6FF03C0E6FF04C006
:102C3000E6FF05C0E6FF06C0E6FF07C0E6FFEE2A96
:102C4000000E0006015AE55200C0EEFF01C0EEFF83
:102C500000C0EEFF01C0EEFFE1CFEEFFE2CFEEFFDE
:102C600002C0EEFF03C0EEFFDDCF01F0DDCF00F0CC
:102C7000120008C0DCFF09C0DCFF0AC0DCFF0BC08B
:102C8000DCFF0CC0DCFF0DC0DCFF0EC0DCFF0FC0A2
:102C9000DCFF10C0DCFF13D8DDCF10F0DDCF0FF06C
:102CA000DDCF0EF0DDCF0DF0DDCF0CF0DDCF0BF082
:102CB000DDCF0AF0DDCF09F0DDCF08F0120000C053
:102CC000DCFF01C0DCFF02C0DCFF03C0DCFF04C08E
:102CD000DCFF05C0DCFF06C0DCFF07C0DCFFE9CF7E
:102CE00000F0EACF01F001EE4DF04844E926EE5045
:102CF000EFCFEAFFE96EFC501F0B026EEE6E00C0D4
:102D0000EEFF01C0EEFFE1CFEEFFE2CFEEFFD9CF45
:102D1000EEFFDACFEEFFFD50EE6EFE50EE6E0600D7
:102D2000022EF9D7482A48500208D8A0486A01EE76
:102D30004DF04844E926EE50EFCFEAFFE96EEF523E
:102D4000F1E0EECF01F0EECF02F0EECF03F0F29E15
:102D5000FC6AEECFE1FFEECFE2FFEECFD9FFEECF80
:102D6000DAFFF28E0144FF0FE926000EEA22050089
:102D7000ED50FE6EED50FD6E012EF9D702C0E9FF59
:102D800003C0EAFFDDCF07F0DDCF06F0DDCF05F0B1
:102D9000DDCF04F0DDCF03F0DDCF02F0DDCF01F0B9
:102DA000DDCF00F0120000500208D8A00DD001EED7
:102DB0004DF00044E926EE50EFCFEAFFE96EEF6AEE
:102DC0000050485CD8B4AED7120001EE4DF0484434
:0E2DD000E926EE50EFCFEAFFE96EEF6AA3D7D7
:022DDE0000C033
:102DE000DCFF01C0DCFF14AA06D02950261803E13D
:102DF0002A50271816E0DDEC19F000C036F1800EDD
:102E0000006E8DEC12F036C100F000D000D0000052
:102E10002650296E006E27502A6E016EE3EC12F0E8
:102E2000148ADDCF01F0DDCF00F01200D8DFDDEC39
:102E300019F000C036F1FE0E006E8DEC12F036C1B6
:102E400000F000D000D0000034EC13F0C2EC0DF024
:102E500090EF0FF0C4DF2650235C27502458D8A0F1
:102E600036D02204026E2614021813E0DDEC19F0AD
:102E700000C036F1020E006E8DEC12F036C100F08B
:102E800000D000D00000F6EC12F0C2EC0DF0E0EF44
:102E90000FF0DDEC19F000C036F1000E006E8DEC85
:102EA00012F036C100F000D000D00000F6EC12F0B5
:102EB00000C036F1E00E006E8DEC12F036C100F06D
:102EC00000D000D0000079EC19F0E0EF0FF0DDEC5D
:102ED00019F000C036F1000E006E8DEC12F036C114
:102EE00000F000D000D00000F6EC12F000C036F187
:102EF000E00E006E8DEC12F036C100F000D000D074
:102F00000000250E446E456A466A79EC19F0E0EF40
:022F10000FF0C0
:0E2F120000C0DCFF01C0DCFF14AA0AD02A5068
:102F2000275CD8A006D0D8A408D02950265CD8B0F9
:102F300004D0C8EC0DF0DDEC19F027AA0BD02ABAAA
:102F400009D0296A200E2A6E006A20EC12F0016A6C
:102F500028EC12F029502618006E2A50271800106D
:102F6000D8B407D0060E006E20EC12F0C2EC0DF0C3
:102F7000F1D7DDCF01F0DDCF00F01200CADF040E83
:102F800014B8050E006E20EC12F079EC12F090EF00
:102F90000FF0BFDF0050026E020E14B8030E006E79
:102FA00020EC12F00250006E28EC12F014B810D091
:102FB0002204006E26140018D8B40AD02750245CCE
:102FC000D8A006D0D8A418D02650235CD8B014D0EE
:102FD000180E14B0080E006E20EC12F079EC19F007
:102FE00014A20AD0170E14B40E0E14B60A0E006EF8
:102FF000DDEC19F020EC12F0E0EF0FF01480C9D7EF
:1030000014822650070AD8A4C4D72750200AD8A46F
:10301000C0D714801492310E446E456ABAD714801A
:1030200014821484B6D71480B4D71482B2D7148211
:043030001486AFD77C
:0C30340013A415D0948E0001A16B010EB6
:10304000A26FA36FAB6A240EAC6E080EB86E380E7A
:10305000AF6E010EB06E900EAB6E9D8A080ED56EEF
:10306000F2941200AB500001496EAE504A6EABA212
:1030700002D0AB98AB8849B40ED0200EA15DD8B079
:103080000AD000EEA3F0A2514AC0EBFFA12B200E04
:10309000A24FA26F128E4BEF00F0F29E0001200EA5
:1030A000A15DD8B00AD000EEA3F0A25100C0EBFFA2
:1030B000A12B200EA24FA26F128EF28E120012AE22
:1030C000FED70001F29E00EEA3F0A351EBCF00F07B
:1030D000A107200EA34FA36FA16701D0129EF28E0D
:1030E00012009EB805D09EA8FED700C0ADFF17D035
:1030F000ACB20AD0F29EF2B404D000C0ADFFF28EA2
:103100000ED0F28EACA2FED7D59EF70ED76E350E3E
:10311000D66EF294F29E00C0ADFFD58EF28E1200F4
:1031200000C0DCFF0A0EC16E020EC06E010EC26E40
:103130009D8C01EE00F0080E006EEE6A002EFDD7A9
:10314000DDCF00F01200166AEECF17F0EECF18F0C8
:10315000196AEECF1AF0EDCF1BF0D8901832173263
:1031600016321B321A3219321832173216321B320B
:103170001A3219321832173216321B321A321932F9
:103180001950165E1A50175A1B50185A1750EE262F
:103190001850ED2212009E9C01EE00F0C3CFEEFF0E
:1031A000C4CFEDFFD0DFCFDFCEDF4BEF00F002C0AA
:1031B000DCFF03C0DCFF04C0DCFF05C0DCFF06C091
:1031C000DCFF07C0DCFFF29E06C100F007C101F082
:1031D000F28EE70E046E0C0E056E066A076A026A2E
:1031E000036AFAEC1AF002C000F003C001F0DDCF70
:1031F00007F0DDCF06F0DDCF05F0DDCF04F0DDCF49
:0832000003F0DDCF02F0120023
:0832080000C0DCFF01C0DCFF87
:1032100002C0DCFF03C0DCFF26C002F027C003F0C1
:1032200014A804D02F5002263050032202502C182C
:10323000006E03502D18001202E114BC149A14BA47
:1032400006D0DDEC19F0C8EC0DF0DDEC19F02C50D7
:1032500002162D50031629500218D8A404D02A5063
:103260000318D8B40CD0060E006E20EC12F0C2EC9D
:103270000DF02C5029162D502A162B6AECD7DDCFD5
:1032800003F0DDCF02F0DDCF01F0DDCF00F0120062
:10329000BBDF54EF0FF0B8DF040E006E20EC12F02D
:1032A00079EC12F090EF0FF0AFDF00C002F0020EE9
:1032B000006E20EC12F002C000F028EC12F0080EB4
:1032C000006E20EC12F01FC044F0456A79EC19F052
:1032D000DDEC19F00E0E006E20EC12F0020E446EC2
:0A32E000456A79EC19F0E0EF0FF0F9
:0632EA00476A0101476B79
:1032F0001200F29E44C03AF045C03BF046C03CF09C
:103300001294F28E476A0101476B12000101010E0F
:10331000476F02C0DCFF03C0DCFF0130036E0030EA
:10332000026E0332023203320232033202320332BD
:103330000232070E03160350000807E303E1640E90
:10334000025C03E2640E026E036A0250005C486F86
:1033500003500158496F02E2486B496B0250002448
:103360004A6F035001204B6F02E34A694B69DDCF7E
:1033700003F0DDCF02F01200010E476E010148514B
:10338000005C4951015809E3020E476E00504A5D46
:1033900001504B5902E3476A1284120000C0DCFF5F
:1033A00001C0DCFF0101475103E0D7EC18F0E4DF76
:1033B000DDCF01F0DDCF00F01200F0DF12A4FDD769
:0233C0001200F9
:0E33C2000101446B1200190E3E6E1200190E2E
:1033D000406E12000101010E4419D8B40DD0010E47
:1033E000446F110E366EC80E376EC80E386E010E61
:1033F000F29E396E1296F28E12000101030E4419EC
:10340000D8B40DD0030E446F480E366E320E376EB0
:10341000320E386E010EF29E396E1296F28E120046
:103420000101020E4419D8B40DD0020E446F120EE1
:10343000366E190E376E190E386E010EF29E396E09
:103440001296F28E12000101040E4419D8B40DD068
:10345000040E446F8F0E366E640E376E640E386E37
:10346000010EF29E396E1296F28E120012B002D048
:1034700012A202D0190E3F6E4052D8B402D0E3DF40
:103480000BD03F52D8B402D0B8DF06D03E52D8B4E9
:0A34900002D0C6DF01D09EDF12005B
:06349A0004D80101966B4D
:1034A00002D81200120001019651010A0BE0010E30
:1034B000966F8A968A947A0E446E456A466A79ECCB
:1034C00019F01290120000C0DCFF01C0DCFF010106
:1034D0009651020A19E0020E966F8A947A0E446E93
:1034E000456A466A79EC19F0DDEC19F08A862D0EF2
:1034F000446E010E456E466A79EC19F0640E006E5A
:10350000016A86EC19F01290DDCF01F0DDCF00F0FA
:10351000120000C0DCFF01C0DCFF01019651030A6C
:103520000CE0030E966F8A968A8412802D0E446EEC
:10353000010E456E466A79EC19F0DDCF01F0DDCF62
:1035400000F0120012008A948A9612900101966B84
:10355000120001C0DCFF02C0DCFF016A026AACECB1
:103560001BF0AFEC1BF000505008D8A0006A00C060
:1035700046F1DDCF02F0DDCF01F01200006A01015B
:103580004653D8B403D04607AFEC1BF0120012002C
:1035900001C0DCFF02C0DCFF010E016E026AACEC70
:1035A0001BF00101500E466FDDCF02F0DDCF01F0C0
:1035B000120001014653D8B403D04607BBEC1BF000
:1035C000120000C0DCFF01C0DCFF02C0DCFF016AAA
:1035D000026AACEC1BF0010146515008006EBBECD6
:1035E0001BF0D6EC1BF0DDCF02F0DDCF01F0DDCF1C
:0435F00000F01200D5
:0C35F40004C0DCFF05C0DCFF06C0DCFFEB
:1036000007C0DCFF08C0DCFF09C0DCFF0AC0DCFF2C
:103610000BC0DCFF0050086E0150096E02500A6EAC
:1036200003500B6E006A016A026A036A08500910AF
:103630000A100B10D8B42EEF1BF008A022EF1BF0DD
:1036400078EC1CF0D8900B320A3209320832D8904C
:10365000043605360636073616EF1BF0DDCF0BF0C5
:10366000DDCF0AF0DDCF09F0DDCF08F0DDCF07F0C8
:0E367000DDCF06F0DDCF05F0DDCF04F0120057
:02367E00800EBC
:10368000F16EF06A9D6AA06A9E6AA16A9F6AA26A48
:10369000D09E116A126A136A146A156A89EC1CF0CA
:1036A00068EC1CF0DEEC15F0A9EC1BF0DAEC1BF07A
:1036B000A8EC1AF01AEC18F050EC00F022EC1CF018
:1036C0004DEC1AF0A8EC11F076EC0DF090EC18F03F
:1036D000E1EC19F075EC19F0E5EC05F04AEC0AF0B4
:0C36E000EBEC0FF007EC1CF085EF1CF089
:0436EC0012011001B6
:1036F000FF00FF08C016C8052000020300010902F0
:10370000200001010080FA0904000002FF00FF0010
:103710000705010240000107058102400001040382
:1037200009041403456D62656420496E633C034CD3
:1037300050726F67206C6F7720636F7374205049ED
:10374000432070726F6772616D6D657200000400D6
:023750000F0068
:0E37520001014C6B120001C04CF11200A6B236
:10376000AFEF1BF04CC1A9FFA66AA68001014C2B4C
:10377000A8CF00F0120001C0DCFFA6B2BDEF1BF025
:103780004CC1A9FF00C0A8FFA66AA684F2CF01F031
:10379000550EF29EA76EAA0EA76EA68201BEF28EED
:1037A000A69401014C2BDDCF01F01200A6B2D6EF9A
:0437B0001BF01200F8
:0C37B40000C0DCFF08D813940050FF0A8E
:1037C000D8A41384DDCF00F0120001C0DCFF02C0DA
:1037D000DCFF510E016E026AACEC1BF0AFEC1BF08B
:1037E000DDCF02F0DDCF01F0120001C0DCFF02C02E
:1037F000DCFF510E016E026AACEC1BF0BBEC1BF05F
:0E380000D6EC1BF0DDCF02F0DDCF01F01200A0
:02380E00366A18
:10381000376A386A396A3A6A3B6A3C6A12843D6A96
:103820003E6A3F6A406A1E0E416E3C0E426E436A1B
:10383000630ECB6E4C0ECA6ECC6A9E929D82F28C49
:04384000F28E1200F2
:0C38440001D812009388129212008A989A
:103850009398129212008A88939812821200120092
:10386000F3DF1200F29E8A8800D000D000D08A9840
:04387000F28E1200C2
:0C38740001018C0D0000000001000101AA
:103880000101010101010800000000010101010125
:103890000E0000000001010101010101010101010F
:0338A000012A2AD0
:0C38A4003DC045F15FEC16F011A602D00B
:1038B00011961386ADEC00F036EC1AF03D50010184
:1038C000451905E0452B0A0E006E1EEC0DF0ECD7F5
:1038D000C26A0F0EC16E070EB46EF18E896A010EB8
:1038E000926E8A6A200E936E8B6A946A846A1200C2
:1038F00008C0DCFF045000260550012206500222B9
:0A39000007500322DDCF08F012008B
:06390A0058EC0AF052EF38
:023910001CF0A9
:0639120020EE5FF0120040
:020000040030CA
:0E000000F13FD6FEFFF99AFFFFFFFFDFFFFF83
:0200000400F00A
:06000000054C50726F6711
:00000001FF
