:020000040000FA
:06000000F26A71EF1CF032
:020006000000F8
:08000800E9CFDCFFEACFDCFFC9
:100010009EAA02D063EF19F09EAC02D0FDEF19F05A
:100020009EB201D0FF009E92C2823A503B103C101B
:10003000D8B40AD0010E3A5E000E3B5A3C5A3A50F0
:100040003B103C10D8B41284412E09D03C0E416EB6
:10005000392E05D01276375012A63850396E0E0E52
:100060004306D8A0436E365012A636380F0B435CB9
:10007000D8A002D08B9401D08B84422E0CD0780E65
:10008000426E3D2A3E52D8A43E063F52D8A43F06B7
:100090004052D8A44006DDCFEAFFDDCFE9FF1100D2
:1000A00001019E0E0E6F010E0F6F000E106F010EFC
:1000B0000D6F120000C008F101C009F102C00AF181
:1000C00003C00BF108C00CF1FC041F0B016E010111
:1000D0000D6F01EE0EF0FDCFEEFFFECFEEFFFFCF76
:1000E000EEFF0600012EF7D7120001C0DCFFDDCFC6
:1000F00001F0E0DF01C0DCFF13A006D0016AC0EC14
:100100000CF001B0F4D704D012AEF1D790EC19F096
:1001100016EC1BF0DDCF01F0120001C0DCFF13A0D4
:100120000BD0016AC3EC0CF001A008D0DDCF01F0C8
:10013000C1DF01C0DCFFF5D7A2EC19F0DDCF01F083
:10014000120012B41200B6DF00EC1BF0FAD7B2DFD7
:1001500012B8FDD71288128A1200010101EE0DF0CB
:100160000D51016E030DF350E926014E08D0050034
:10017000ED50FF6EED50FE6EED50FD6EF6D708C1EE
:1001800000F009C101F00AC102F00BC103F00CC17B
:1001900008F01051FB6E0F51FA6E0E51F96E13906C
:1001A000138288DF12AE03D090EC19F007D0016AF9
:1001B000C0EC0CF001B0F5D7138013920050016E23
:1001C0005908D8A0ECD719D802500310D8B4E7D7F3
:1001D00013A208D000C0DCFF010E006E8DEC00F011
:1001E000DDCF00F0260E0226020E0320FA6E000E6E
:1001F000FB6E000EFB220250F96E036AD8900134A8
:10020000026E0336260E0224F66E020E0320F76EEF
:10021000000EF86E000EF8220900F5CF02F009007A
:10022000F5CF03F012000000B400B8000000C400D5
:10023000E000BA01D6017A02860292029E02AA0268
:10024000BA02D002F00200000000320300003E03B8
:100250004A0356036203C403800394030000D203DD
:100260004404E604080414041E04FA0302046C05A2
:10027000600438042603A0036E0600009A060000FE
:10028000AE0600000000BE06FA060000F2080C01EF
:100290004201FA012602FE050000A00408070E052F
:1002A000000038072C075C07000070079E07C8078E
:1002B0007C040000CA08DE08CA07DE07F207060849
:1002C0001A082E08420856086A087E089208AA08EA
:1002D00000000000820192015A02CFEF00F0A1EC71
:1002E00000F0A9EC0DF0CFEF00F075EC00F000503D
:1002F000070B010F086E75EC00F0A1EC00F0FAECB2
:1003000011F0CFEF00F075EC00F000500F0B010F73
:10031000086E75EC00F000C002F075EC00F000C053
:1003200001F002C000F0A1EC00F0FAEC11F0CFEF08
:1003300000F075EC00F000501F0B010F086E75EC1B
:1003400000F000C003F075EC00F000C001F075ECA7
:1003500000F000C002F003C000F0036AA1EC00F05E
:10036000FAEC11F0CFEF00F075EC00F000501F0B2D
:10037000010F086E75EC00F000C003F075EC00F0A2
:1003800000C001F075EC00F000C002F075EC00F068
:1003900000C004F003C000F004C003F0A1EC00F0C2
:1003A000FAEC11F0CFEF00F075EC00F0A1EC00F0EA
:1003B0009FEC12F0CFEF00F075EC00F000C003F0FE
:1003C00075EC00F000C001F075EC00F000C002F028
:1003D00003C000F0A1EC00F0C7EC12F0CFEF00F08A
:1003E00075EC00F00050070B010F086EA1EC00F057
:1003F00065EC12F08DEC00F0CFEF00F075EC00F042
:1004000000500F0B010F086EA1EC00F065EC12F02C
:100410008DEC00F001C000F08DEC00F0CFEF00F0AB
:1004200075EC00F000501F0B010F086EA1EC00F0FE
:1004300065EC12F08DEC00F001C000F08DEC00F0E6
:1004400002C000F08DEC00F0CFEF00F075EC00F092
:1004500000501F0B010F086EA1EC00F065EC12F0CC
:100460008DEC00F001C000F08DEC00F002C000F057
:100470008DEC00F003C000F08DEC00F0CFEF00F049
:10048000A1EC00F034EC13F08DEC00F001C000F0B2
:100490008DEC00F002C000F08DEC00F0CFEF00F02A
:1004A000A1EC00F0D4EC11F0CFEF00F0A1EC00F0E3
:1004B000D0EC11F0CFEF00F0A1EC00F0DFEC11F088
:1004C000CFEF00F0A1EC00F0DBEC11F0CFEF00F08B
:1004D000A1EC00F0E6EC11F08DEC00F0CFEF00F0B5
:1004E000A1EC00F0B4EC11F0006A13BC00808DECBC
:1004F00000F0CFEF00F075EC00F000C001F075ECFB
:1005000000F0A1EC00F001C044F000C045F0ABECFD
:100510001AF0CFEF00F0010E006E8DEC00F01A0E15
:10052000006E8DEC00F01D0E006E8DEC00F0160ECE
:10053000006E8DEC00F0006A8DEC00F08DEC00F0A8
:100540008DEC00F08DEC00F0CFEF00F0030E006EAC
:100550008DEC00F0CFEF00F0A1EC00F0BBEC1BF055
:10056000CFEF00F0A1EC00F095EC1BF0CFEF00F026
:10057000A1EC00F045EC1DF0CFEF00F0A1EC00F095
:1005800041EC1DF0CFEF00F075EC00F0139E00BEC3
:10059000138E009E00501C6E2C6A2D6A2E6A41EC50
:1005A0000DF0CFEF00F075EC00F000C01DF0010E73
:1005B000226E84EC1BF0CFEF00F075EC00F000C071
:1005C0001EF0CFEF00F075EC00F000C001F075EC0C
:1005D00000F000C002F075EC00F001C02CF002C089
:1005E0002DF000C02EF0CFEF00F01498A1EC00F039
:1005F000C8EC0DF0CFEF00F075EC00F000C001F09A
:1006000075EC00F000C002F075EC00F001C026F0BF
:1006100002C027F000C028F023EC0FF0CFEF00F06D
:10062000BDEC0DF0CFEF00F0149ACFEF00F075ECB9
:1006300000F000501F6ECFEF00F014A8CFEF00F0D5
:10064000149804D014B8CFEF00F01488261C296E3B
:10065000271C2A6E281C2B6E149ACFEF00F0A1ECF9
:1006600000F019EC1BF0CFEF00F0A1EC00F05FEC14
:100670000FF08DEC00F001C000F08DEC00F0BDEC4F
:100680000DF0CFEF00F0A1EC00F0080E026E5FEC71
:100690000FF08DEC00F0BDEC0DF0022EF8D7CFEF8F
:1006A00000F0A1EC00F0400E026E5FEC0FF08DEC5C
:1006B00000F001C000F08DEC00F0BDEC0DF0022E5A
:1006C000F4D7CFEF00F0FC0E2616DDEC07F03CEC83
:1006D00008F08DEC00F001C000F08DEC00F002C0DD
:1006E00000F08DEC00F003C000F08DEC00F004C0D1
:1006F00000F08DEC00F005C000F08DEC00F0040E71
:100700002626000E27222822CFEF00F075EC00F0FD
:1007100000C002F075EC00F000C001F002C000F073
:1007200019EC1BF0A1EC00F099EC0FF0BDEC0DF012
:10073000CFEF00F019EC1BF0080E086E1A0E026ED7
:10074000010E036E75EC00F002C0E9FF03C0EAFF82
:1007500000C0EFFF022AD8B0032A082EF3D70168A1
:10076000080E086E1A0E026E010E036E02C0E9FF3B
:1007700003C0EAFFEFCF00F0022AD8B0032AA1ECB1
:1007800000F099EC0FF0BDEC0DF0082EEFD7CFEF95
:1007900000F019EC1BF0A1EC00F050EC14F0030E8B
:1007A000036E75EC00F00050026E75EC00F0005026
:1007B000016E0D0E0352D8B40F0E006E040E086EBB
:1007C000FAEC11F00250006E100E086EFAEC11F007
:1007D000030603AEE6D7006A030E086EFAEC11F0CA
:1007E000D4EC11F00E0E446E456A466AABEC1AF07A
:1007F000080E2626D8B0272AD8B4282A149AA1ECA5
:1008000000F0D0EC11F0010E446E456AABEC1AF02A
:100810000FEC1BF0006A016A100E086EFAEC11F082
:10082000CFEF00F019EC1BF0F80E261675EC00F077
:1008300000C001F075EC00F000C002F075EC00F0B3
:10084000A1EC00F091EC09F075EC00F000C001F0B3
:1008500075EC00F000C002F075EC00F0A4EC09F0BB
:1008600075EC00F000C001F075EC00F000C002F083
:1008700075EC00F0DBEC09F075EC00F000C001F065
:1008800075EC00F000C002F075EC00F0E3EC09F04C
:10089000CFEF00F075EC00F0046A0050016E5908CB
:1008A000D8A008D0FDEC00F002500310D8B402D05C
:1008B000010E046E04C000F08DEC00F0CFEF00F0EC
:1008C00009EC1AF08DEC00F001C000F08DEC00F0A6
:1008D000CFEF00F0A1EC00F047C000F08DEC00F08D
:1008E000CFEF00F075EC00F0A1EC00F089EC0DF01A
:1008F000A1EC00F0E3EC11F0D8EC11F03EEC1DF0AF
:10090000A1EC00F0005003E185EC1BF004D0FA08E4
:10091000FA0ED8A0006EA1EC00F01580CFEF00F029
:10092000A1EC00F0A9EC0DF01580CFEF00F075EC14
:1009300000F000C001F075EC00F000C002F075ECB2
:1009400000F001C02FF002C030F000C031F0CFEF56
:1009500000F075EC00F000C022F0CFEF00F075EC75
:1009600000F00050026E75EC00F00050016E75EC66
:1009700000F00250236E0150246E0050256ECFEF20
:1009800000F0410E006E8DEC00F0030E006E8DEC59
:1009900000F0CFEF00F0A7EC00F0FAEC1BF075ECE4
:1009A00000F000C001F00152D8B406D0010675EC89
:1009B00000F00BEC1CF0F7D713EC1CF0129A129815
:1009C000CFEF00F0A7EC00F0DBEC1BF08DEC00F0BB
:1009D00000C001F00152D8B406D00106F0EC1BF0C3
:1009E0008DEC00F0F7D7129A1298CFEF00F0FF00CD
:1009F00075EC00F000C022F175EC00F000C023F1AE
:100A0000CFEF00F075EC00F000C024F175EC00F0C1
:100A100000C025F1CFEF00F075EC00F000C026F12A
:100A200075EC00F000C027F1CFEF00F075EC00F09E
:100A300000C028F175EC00F000C029F1CFEF00F004
:100A400075EC00F000C02AF175EC00F000C02BF14D
:100A5000CFEF00F075EC00F000C02CF175EC00F069
:100A600000C02DF1CFEF00F075EC00F000C02EF1CA
:100A700075EC00F000C02FF1CFEF00F075EC00F046
:100A800000C030F175EC00F000C031F1CFEF00F0A4
:100A900075EC00F000C032F175EC00F000C033F1ED
:100AA000CFEF00F075EC00F000C034F175EC00F011
:100AB00000C035F1CFEF00F075EC00F000C001F0A0
:100AC00075EC00F001C020F000C021F0CFEF00F085
:100AD0001B0E006E8DEC00F0B70E006E8DEC00F07A
:100AE000006A8DEC00F0006A8DEC00F0CFEF00F0B2
:100AF000A7EC00F01AEC1DF08DEC00F0129A1298A1
:100B0000CFEF00F075EC00F0A7EC00F02AEC1DF040
:100B1000129A1298CFEF00F075EC00F000C001F0CF
:100B200075EC00F00150040838E3000EFB6EFA6A21
:100B3000D8900136FA360136FA364A0E01260B0EE7
:100B4000FA22000EFB220150F96EAFEF05F0B5EF6F
:100B500005F0BBEF05F0C1EF05F0C7EF05F0E40EBF
:100B6000016E3A0E026E000E1ED0E70E016E3A0EB6
:100B7000026E000E18D0010E016E3B0E026E000ECA
:100B800012D0F60E016E3A0E026E000E0CD0120E4E
:100B9000016E3B0E026E000E06D0000E006E8DEC54
:100BA00000F0CFEF00F0F86E02C0F7FF01C0F6FFD3
:100BB00009000050F55ED8A0F0D7F626000EF72207
:0A0BC000F8220800F5CF00F0EAD794
:060BCA00010E326E400E28
:100BD000336E080E346E400E356E0101010E3F6F0C
:100BE000120003C0DCFF08C0DCFF01013F2F2DD045
:100BF00000C0DCFF01C0DCFF02C0DCFF1C0E086E81
:100C0000006A016A026A036AFAEC11F0FAEC11F068
:100C1000006A100E016E400E026E036A200E13B8B9
:100C2000016EFAEC11F0006A016A026A036AFAECDA
:100C300011F013AA04D0FAEC11F0FAEC11F0DDCFA8
:100C400002F0DDCF01F0DDCF00F000C0DCFF01C01D
:100C5000DCFF02C0DCFF036AD890003601360236A2
:100C600003360036013602360336003601360236C8
:100C7000033600360136023603361C0E086EFAECD7
:100C800011F0DDCF02F0DDCF01F0DDCF00F0DDCFE0
:100C900008F0DDCF03F0120000C0DCFF01C0DCFF74
:100CA00002C0DCFF006A016A026A9BDFDDCF02F04E
:100CB000DDCF01F0DDCF00F0120013AA01D0ECDF90
:100CC000120013AA03D0E8DFE7DFE6DF120002C05C
:100CD000DCFF03C0DCFF08C0DCFFDEDF010E006EBE
:100CE000016A0C0E086EFAEC11F0100E086E65EC3D
:100CF00012F0E3DFDDCF08F0DDCF03F0DDCF02F04F
:100D00001200020E1CD0120E1AD0220E18D0320E73
:100D100016D0420E14D0520E12D0620E10D0720EA7
:100D20000ED0820E0CD0920E0AD0A20E08D0B20EB7
:100D300006D0C20E04D0D20E02D0E20E00D000C007
:100D4000DCFF01C0DCFF02C0DCFF026E02340036B3
:100D500001360236023400360136023602340036DD
:100D60000136023602340036013602363ADFDDCF74
:100D700002F0DDCF01F0DDCF00F01200000E1ED03A
:100D8000010E1CD0020E1AD0030E18D0040E16D07D
:100D9000050E14D0060E12D0070E10D0080E0ED07D
:100DA000090E0CD00A0E0AD00B0E08D00C0E06D07D
:100DB0000D0E04D00E0E02D00F0E00D000C0DCFFCE
:100DC00001C0DCFF02C0DCFFEECF00F0EDCF01F090
:100DD0000090026AD890003601360236003601369D
:100DE00002360036013602360012880E0212F9DE93
:100DF000DDCF02F0DDCF01F0DDCF00F01200000EFC
:100E00001ED0010E1CD0020E1AD0030E18D0040EF4
:100E100016D0050E14D0060E12D0070E10D0080EF4
:100E20000ED0090E0CD00A0E0AD00B0E08D00C0EF4
:100E300006D00D0E04D00E0E02D00F0E00D000C052
:100E4000DCFF01C0DCFF02C0DCFFEECF00F0EDCF25
:100E500001F00090026AD890003601360236003662
:100E6000013602360036013602360012800E0212BA
:100E7000B8DEDDCF02F0DDCF01F0DDCF00F01200F3
:100E800001EE2CF097DF08DF120001013F51F00B5B
:100E9000010ED8B43F6F120000C0DCFF01C0DCFFC0
:100EA0000A0E006E016A3BDF34C000F035C001F06D
:100EB00038DF040E006E400E016E35DF32C000F0E8
:100EC00033C001F032DF550E006E016A30DFAA0E2A
:100ED000006E016A2EDF006A016A2DDF006A016A76
:100EE0002CDFCEDF296A2A6A2B6ADDCF01F0DDCF45
:100EF00000F0120000C0DCFF01C0DCFF02C0DCFF1C
:100F000026502918006E27502A18001228502B1836
:100F100000101FE014B80CD028502B6E006E016A30
:100F20000CDF2650296E006E27502A6E016E0ED0FF
:100F30007F0E006E016A01DFD8902634006E2734E0
:100F4000016E2F500026305001220112F4DE98DF8E
:100F5000B4DEDDCF02F0DDCF01F0DDCF00F0120016
:100F600001013F69149E0FEC1BF013B80BD094DE07
:100F700093DE006A010E016E040E026EF1EC05F0C4
:100F80008BDE16D0006A016A026A036A050E086EDB
:100F9000FAEC11F081DE91DE90DE006A020E016E45
:100FA000040E026EF1EC05F077DE76DE86DE85DE7D
:100FB00001013F6971DF49EF0EF000C0DCFF01C0A5
:100FC000DCFF2650006EFC0B266E0101406F27C02F
:100FD00041F128C042F18EDF00C026F09D0E006E68
:100FE000DB0E016EBA0E026EF1EC05F055DE54DE3A
:100FF00068DEBD0E006E016ABA0E026EF1EC05F0FD
:101000004BDE4ADE5EDE9D0E006ED30E016EBA0E22
:10101000026EF1EC05F040DE3FDE53DE3D0E006E69
:10102000010E016EBA0E026EF1EC05F035DE34DE13
:1010300048DE01EE2AF0A4DE4ADE00C043F101C022
:1010400044F101EE2AF09EDE42DE00C046F101C00E
:1010500047F101EE2AF09CDE3ADE00C045F101C006
:1010600048F12950040F296E000E2A22148EDDCF7C
:1010700001F0DDCF00F0120043C100F044C101F0E7
:1010800045C102F046C103F047C104F048C105F074
:10109000120014B821D014AE0CD02650FC0B006EF8
:1010A0000101401906E12750411903E12850421976
:1010B00001E083DF2650030B01EE44F0E8B201EEBD
:1010C00047F0E8B005D0EDCF01F0EFCF00F01AD037
:1010D000ECCF00F0016A16D00DDF2628296E000E35
:1010E00027200F0B2A6E2B6ABD0E006E016ABA0E06
:1010F000026EF1EC05F0D0DDCFDDE3DD01EE2AF08C
:101100003FDEE5DD92EF0FF0FA0E006E016AF9DDC9
:1011100001EE2CF033DE006A016AF3DDBDDD370E2F
:10112000006EC80E016EBB0E026EF1EC05F0B4DD70
:10113000B3DD010E006E180E016EBB0E026EF1ECF7
:1011400005F0AADDA9DD270E006EC80E016EBB0EEC
:10115000026EF1EC05F0A0DD9FDD020E006E180EB0
:10116000016EBB0E026EF1EC05F096DD95DD0068B8
:101170000168C7DD01EE2AF001DE01EE32F018DE73
:1011800001EE34F017DE01EE2EF00CDE85DD84DD9D
:1011900001EE30F009DE80DD01EE30F007DE290ED1
:1011A000006EE70E016EA80E026EF1EC05F074DD24
:1011B00073DD72DD71DD70DDCD6A0F0E006E016AC8
:1011C0002050005E2150015A02E20068016801C00F
:1011D000CFFF00C0CEFF9E90CD80040E2926000ECA
:1011E0002A22040E2626000E272228229EA0FED7A1
:1011F00053DD01EE2EF003DE4FDD01EE2AF0BEDD01
:1012000066DDF00E00168F0E01140010F1E14D0E98
:10121000006E016AB00E026EF1EC05F0120035DED0
:10122000149E13B80FD03B0E006E016E880E026E36
:10123000F1EC05F03C0E006E3B0E016E880E026E66
:10124000F1EC05F0610E006EE70E016EA80E026E65
:10125000F1EC05F021DD20DD1FDD1EDD1F50446EA9
:10126000456A466A0FEC1BF013B80BD0610E006E96
:10127000E70E016EA90E026EF1EC05F00DDD0CDD3E
:1012800014D00ADD006A3B0E016E800E026EF1EC96
:1012900005F0200E006E3C0E016E880E026EF1EC21
:1012A00005F0FADC14DD01BEECD71200149E14B870
:1012B0001DD026B034D02B6A1DDE23DD080E006E53
:1012C0003B0E016E880E026EF1EC05F0800E006E92
:1012D0001E0E016EBB0E026EF1EC05F0DDDCDCDCF7
:1012E0009EDF020E2926000E2A2219D003DE09DD18
:1012F000090E006E3B0E016E880E026EF1EC05F0D9
:10130000800E006E1E0E016EBB0E026EF1EC05F03B
:10131000C3DCC2DC84DF010E2926000E2A22E4EFA2
:101320000FF0E8DD00C003F001C000F002C001F0E2
:10133000EADC13BA08D02204261405E101EE2CF0F1
:1013400039DDAADCA9DC120000C004F001C000F005
:1013500002C001F0DADC03C000F004C001F0DBDC05
:1013600013BAD2D6B70E006ECE0E016EBB0E026E51
:10137000F1EC05F091DC90DC810E006E1E0E016E2A
:10138000BB0E026EF1EC05F087DC86DCA70E006E6A
:10139000CE0E016EBB0E026EF1EC05F07DDC7CDC46
:1013A000820E006E1E0E016EBB0E026EF1EC05F099
:1013B00073DC72DC120000C003F001C000F002C058
:1013C00001F0A1DC120013BABFD700C004F001C0C5
:1013D00000F002C001F099DC03C000F004C001F08D
:1013E0009ADCB70E006ECE0E016EBB0E026EF1ECF3
:1013F00005F052DC51DC810E006E1E0E016EBB0E3C
:10140000026EF1EC05F048DC47DCA70E006ECE0E54
:10141000016EBB0E026EF1EC05F03EDC3DDC820E8F
:10142000006E1E0E016EBB0E026EF1EC05F034DC98
:1014300033DC080E2626000E27222822080E292635
:10144000000E2A222204261404E101EE2EF0AADC6A
:04145000E6DE1200C2
:0C14540020042E043B044904FFFFFFFFAE
:10146000FFFFFFFFFFFFFFFFFFFFFFFFFFFFFFFF8C
:10147000FFFFFFFFFFFFFFFFFFFFFFFFFFFFFFFF7C
:10148000FFFFFFFFFFFFFFFFFFFFFFFFFFFFFFFF6C
:10149000FFFFFFFF4B684C6A1198119E0101DC0EA3
:1014A000796F050E7A6F606A160E626E66681200BA
:1014B00000C0DCFF01C0DCFF02C0DCFF03C0DCFFBA
:1014C00082D86086118E7B0E006E010E016E0A0EB0
:1014D000026E150E036E15EC16F080EC16F0DDCFE3
:1014E00003F0DDCF02F0DDCF01F0DDCF00F0120020
:1014F0004BC000F0F4EC16F011AA02D0F9EC1BF08E
:101500004B68606A119E1198120048C04BF04C6AFB
:10151000119C0101DC0E796F050E7A6F80EC16F0DC
:1015200044DA11B0FBD780EC16F037EC10F0F6D7A8
:1015300000C0DCFFEFA644D0040EEBCF00F0050E98
:10154000EB500010D8A43CD0010EEBCFE1FF000E11
:10155000EFB4040FE126040EE26EEF9CE7503C0B63
:10156000340AD8B4EF8CEF9AE650030B006E050EE8
:1015700000C0EBFF040EE7CFEBFFE6500010D8B43D
:10158000EF8AE650EF34060B090FEBCFE5FFFF0FB4
:10159000EBCFE5FF020EEBCFE5FF030EEB50E76E5E
:1015A000E78E010EEFB0030EEFB2020EEF1AEF96C8
:1015B000EFB8EF86EF98EF74060EEB6A010FEB6A57
:1015C000DDCF00F0120000C0DCFF01C0DCFF11988D
:1015D00011866A6A6B6A6C6A6D6A6E6A6F6A706A93
:1015E000716A726A736A746A756A766A776A786A07
:1015F000796A04EE00F0200E006EEE6A002EFDD730
:101600000401380E206F000E216F080E226F236B2D
:10161000246B256B560E286F040E296F5E0E2A6F01
:10162000040E2B6F660E2C6F040E2D6F180E2E6F8E
:101630002F6B080E306F080E316F326B336B346BCB
:101640006E0E356F040E366F760E376F040E386FE0
:101650007E0E396F040E3A6F380E3B6F100E3C6FE2
:10166000400E3D6F3E6B3F6B406B860E436F040E2A
:10167000446FC60E456F040E466F060E476F050E8B
:10168000486F180E496F020E4A6F180E4B6F400ECE
:101690004C6F4D6B4E6B4F6B460E506F050E516F7E
:1016A000860E526F050E536FC60E546F050E556FA2
:1016B00004EE20F03DDF3CDF636A656A646A608C9B
:1016C000E90E60166086609C65A602D06596FCD720
:1016D000160E6A6E1182DDCF01F0DDCF00F0120030
:1016E0000401380E3B6F100E3C6F400E3D6F3E6B99
:1016F0003F6B406B860E436F040E446FC60E456F02
:10170000040E466F060E476F050E486F180E496FA0
:10171000020E4A6F180E4B6F400E4C6F4D6B4E6BA6
:101720004F6B460E506F050E516F860E526F050EB1
:10173000536FC60E546F050E556F04EE3BF0F8DE86
:10174000F7DE160E6A6E1E0E6B6E1188120000C058
:10175000DCFFEFA64CD0EFBE4AD0050EEBCF00F079
:10176000060EEB500012D8A406D0010EEBB402D046
:10177000EFAC3DD0EF9C020EEBCFE1FF030EEFB4D8
:10178000040FE126040EE26EEF34060B080FEBCFD8
:10179000E5FFFF0FEBCFE5FF050EEBCFE5FF060EF4
:1017A000EB500809E76E010EEBB0E78CEB70E78EAB
:1017B000010EEBA20AD0EB94030EEBCF00F0050E66
:1017C000EB50001A02E1010EEB84010EEFB0030EA4
:1017D000EFB2020EEF1AEF96EFB8EF86EF98EF74C4
:1017E000EF9AEFBCEF8A050EEB6A010FEB6ADDCFD3
:1017F00000F01200F00E0116030E0112EFAC08D03B
:10180000060EEB52D8A404D00752EB52D8B4018490
:10181000EFBA26D0019201B823D00190EF34060B25
:10182000080FEBCFE1FF010FEBCFE2FF060EEB500D
:10183000E126070EEB50E222060EEB2A070ED8B087
:10184000EB2A040EEB06EBCF00F0050ED8A0EB065A
:10185000EB500012E7CF00F0D8A402D0EF8A68DE88
:10186000120002C0DCFF03C0DCFFF00E0116030E05
:101870000112EFBA2ED0019201BAEF8E01B829D031
:10188000019001AAEF9EEF34060B070FEBCFE1FFAB
:10189000010FEBCFE2FF050EEB50E126060EEB50F9
:1018A000E22200C0E7FF050EEB2AEBCF02F0060EA6
:1018B000D8B0EB2AEBCF03F0030EEB500218D8A4FC
:1018C00007D0040EEB500318D8A402D0EF8AEF9E85
:1018D0003EDFDDCF03F0DDCF02F01200F00E011687
:1018E000030E0112EFBC14D0019201B811D0EF9E8B
:1018F00001BC0AD0EFBA08D0050EEB52D8A407D02D
:10190000060EEB52D8A403D00190EF8CEF8A1FDFB4
:10191000120002C0DCFFF00E0116030E0112050ECC
:10192000EBCF02F0060EEB500210D8A407D00184D2
:10193000EF50180B180AD8B4018609D0EFA607D0CB
:10194000019201B804D001900184EF9E00DFDDCF49
:1019500002F0120004EE20F04DD76A80120004EE6F
:101960002EF07FD704EE2FF0EF90120004EE2FF050
:10197000EF80120004EE2EF0CCD704EE2EF0AED79E
:1019800004EE3BF037D704EE49F06BD704EE4AF093
:10199000EF90120004EE4AF0EF80120004EE49F0DE
:1019A000B8D700C078F111841200119065A206D05A
:1019B0001180118C6750676A4C12120065A003D029
:1019C000118001DE120065AC02D0659C118C65A609
:1019D00025D061CF00F06596118C140EF76E000EC5
:1019E000F86E00403E0B540FF66E000EF722F82200
:1019F0000900F5CFE9FF0800F5BE10D0F5CFEAFFEA
:101A00001180EF300018020B080ED8A4100EEF1250
:101A100000B402D08DDD12009ADE120065AA03D058
:101A2000659A1180120065A803D065981180120094
:101A300065A403D0659411801200120011AE20D06D
:101A400011AC07D0119C0101E80E796F030E7A6F7B
:101A500017D001010050795F000E7A5B04E37951E1
:101A60007A11D8A40DD0606A119E1198E20E446ECE
:101A70002E0E456E466AABEC1AF00FEC1BF0FF0021
:021A8000120052
:0E1A8200206A216A010E326E400E336E080E8D
:101A9000346E400E356E1398139A0101A60E226F14
:101AA0000F0E236FA90E246F0F0E256FAA0E266F3F
:101AB0000F0E276FA80E286F0F0E296F840E2A6F46
:101AC000070E2B6F320E2C6F2D6B600E2E6F070ED4
:101AD0002F6F660E306F070E316F620E326F070E7A
:101AE000336F640E346F070E356F12001C6A1D6A67
:101AF0001E6A780E1F6E266A276A286A296A2A6A71
:101B00002B6A2C6A2D6A2E6A2F6A306A316AB9DF15
:101B1000120013BE04D041EC1DF00FEC1BF0D0EC12
:101B200011F00FEC1BF0DBEC11F00FEC1BF095EC5F
:101B30001BF013AE04D00FEC1BF041EC1DF05A0E5D
:101B4000446E020E456E466AABEC1AF00FEC1BF0C9
:101B50001200E3EC11F0D8EC11F085EC1BF00FEC67
:101B60001BF03EEC1DF00FEC1BF05A0E446E020E03
:101B7000456E466AABEC1AF01200262A000E2722A8
:101B800028221200292A000E2A222B22148C12004D
:101B900000C0DCFF01C0DCFF02C0DCFF03C0DCFFD3
:101BA00008C0DCFF2CC029F02DC02AF02EC02BF07D
:101BB000149A149C0FEC1BF0ACDF0FEC1BF01C50C4
:101BC000D8B432D00D08D8A02FD01B0EFA6E000E5C
:101BD000FB6E1C04E846E846030BFA26D8B0FB2A45
:101BE0001C04E846E846FC0BF40FD8B0FA2AD8B03B
:101BF000FB2AF96E54EF0EF05CEF0EF05DEF0EF085
:101C00005CEF0EF05CEF0EF099EF0EF0D5EF0EF0FA
:101C1000D9EF0EF064EF0EF0E2EF0EF0B7EF0EF03A
:101C2000E3EF0EF083EF0EF01C50D8B432D00D0865
:101C3000D8A02FD01C0EFA6E000EFB6E1C04E846D6
:101C4000E846030BFA26D8B0FB2A1C04E846E8460F
:101C5000FC0B5E0FD8B0FA2AD8B0FB2AF96E49EF18
:101C60000EF049EF0EF049EF0EF0B0EF07F049EF3C
:101C70000EF049EF0EF0B0EF07F0B0EF07F049EFCC
:101C80000EF0B0EF07F049EF0EF0B0EF07F049EFBC
:101C90000EF0DDCF08F0DDCF03F0DDCF02F0DDCFB9
:101CA00001F0DDCF00F01200148A45EC1DF00FECBE
:101CB0001BF0BBEC1BF0B8D7148ABBEC1BF00FEC8D
:101CC0001BF045EC1DF0B0D7149ABBEC1BF00FECE9
:101CD0001BF00E0E446E456A466AABEC1AF00FEC30
:101CE0001BF0500E006E480E016E430E026E4D0E3C
:101CF000036E200E086EFAEC11F0006A010E086EF9
:101D0000FAEC11F091D7148A41EC1DF00FEC1BF0A6
:101D1000BBEC1BF00FEC1BF0B20E006EC20E016E9E
:101D2000120E026E0A0E036E200E086EFAEC11F00F
:101D30007BD7148A41EC1DF00FEC1BF095EC1BF0E7
:101D40000FEC1BF0BBEC1BF00FEC1BF04CEC1DF090
:101D5000B20E006EC20E016E120E026E0A0E036EFD
:101D6000200E086EFAEC11F045EC1DF05DD7148AD8
:101D700041EC1DF00FEC1BF095EC1BF00FEC1BF091
:101D8000BBEC1BF00FEC1BF045EC1DF00FEC1BF057
:101D9000B20E006EC20E016E120E026E0A0E036EBD
:101DA000200E086EFAEC11F03FD7346A400E356E03
:101DB00010D0040E326E400E336E040E346E400EA0
:101DC000356E07D006D0010E346E400E356E138A84
:101DD00000D01388148A41EC1DF00FEC1BF095EC39
:101DE0001BF00FEC1BF0BBEC1BF00FEC1BF00E0E0E
:101DF000446E456A466AABEC1AF00FEC1BF04CECF3
:101E00001DF00FEC1BF01A0E446E456A466AABECEF
:101E10001AF00FEC1BF0B20E006EC20E016E120E25
:101E2000026E8A0E036E200E086EFAEC11F045EC7D
:101E30001DF00FEC1BF0660E446E020E456E466AF6
:101E4000ABEC1AF0F1D600C0DCFF01C0DCFF02C031
:101E5000DCFF03C0DCFF08C0DCFF1E50D8B424D078
:101E60000608D8A021D01E0EFA6E000EFB6E1E04CE
:101E7000E846E846030BFA26D8B0FB2A1E04E846DB
:101E8000E846FC0B900FD8B0FA2AD8B0FB2AF96EBE
:101E900054EF0FF054EF0FF07AEF1AF054EF0FF009
:101EA00054EF0FF054EF0FF0DDCF08F0DDCF03F06B
:101EB000DDCF02F0DDCF01F0DDCF00F0120002C077
:101EC000DCFF03C0DCFF08C0DCFF1E50D8B42AD002
:101ED0000908D8A027D01F0EFA6E000EFB6E1E0454
:101EE000E846E846030BFA26D8B0FB2A1E04E8466B
:101EF000E846FC0B000FD8B0FA2AD8B0FB2AF96EDE
:101F0000EFEF18F008EF14F07DEF1AF049EF08F04A
:101F100008EF14F04DEF15F035EF18F058EF15F00D
:101F200056EF17F0DDCF08F0DDCF03F0DDCF02F084
:101F3000120000C0DCFF01C0DCFF02C0DCFF03C0F8
:101F4000DCFF08C0DCFF14901492149414961F5008
:101F5000446E456A466A1D50D8B436D00F08D8A0E2
:101F600033D01F0EFA6E000EFB6E1D04E846E846E5
:101F7000030BFA26D8B0FB2A1D04E846E846FC0B02
:101F80008C0FD8B0FA2AD8B0FB2AF96EFAEF18F005
:101F90002FEF19F086EF1AF056EF09F031EF19F034
:101FA00041EF19F044EF19F063EF14F046EF19F028
:101FB00040EF19F048EF19F09FEF15F04CEF18F0D3
:101FC000B2EF15F0ACEF17F0DDCF08F0DDCF03F086
:0E1FD000DDCF02F0DDCF01F0DDCF00F012001A
:021FDE000101FF
:101FE000C20E606F200E616F000E626F010E5F6F98
:101FF0001200016ABAEC0CF001B602D019D8F9D778
:1020000012006098016ABAEC0CF001B402D010D84A
:10201000F9D7B6EC0CF01200200E016EAFEC0CF00C
:1020200001A002D005D8F8D70101764B772B12001A
:1020300000C058F101C059F102C05AF103C05BF170
:1020400004C05CF105C05DF106C05EF1FC041F0B2D
:10205000016E01015F6F01EE60F0FDCFEEFFFECF7C
:10206000EEFFFFCFEEFF0600012EF7D7120011A200
:1020700002D0119226D0010101EE5FF05F51016E96
:10208000030DF350E926014E08D00500ED50FF6E18
:10209000ED50FE6EED50FD6EF6D758C100F059C1FF
:1020A00001F05AC102F05BC103F05CC104F05DC1F4
:1020B00005F05EC106F06251FB6E6151FA6E60512F
:1020C000F96E0101746B756B11AA03D0F9EC1BF06A
:1020D000119A080E026E016AAAEC0CF001A002D05F
:1020E000A7DFF9D701A402D0080E026E01EE6CF052
:1020F00002500808E92600C0EFFF022EECD70101CC
:10210000766B776B000EFB6E210EFA6E6D510C082C
:10211000D8A023D06D35E834FC0B260FD8B0FA2AAE
:10212000D8B0FB2AF96EADEF10F0ADEF10F0ADEFC7
:1021300010F0ADEF10F0ADEF10F090EF11F0F4EF04
:1021400010F0ADEF10F09FEF11F098EF11F0A7EF46
:1021500011F0A4EF11F0ADEF10F06098ADEC0CF0C1
:10216000B8D74FDF01010350735DD8A006D0D8A4C3
:1021700008D00250725DD8B004D072C102F073C1B1
:1021800003F002500310D8B412D004C0F6FF05C00B
:10219000F7FF06C0F8FF0800F5CF00F03DDF042A86
:1021A000000E052206220206D8A00306EAD7010186
:1021B0007251070BD8A408D072517619D8A404D054
:1021C00073517719D8B485D7016ABDEC0CF001A220
:1021D00080D72EDFF9D715DF400E016EBDEC0CF075
:1021E00001A077D725DFF8D701016F51FF0FD8A4E1
:1021F0000DD06E53D8A4B1D7560E046E390E056EAD
:10220000000E066E120E026E036AABD7FF0FD8A443
:102210000DD06E53D8A4A1D7680E046E390E056E8A
:10222000000E066E200E026E036A9BD7FF0FD8A425
:1022300094D76E05D8B45DD06E510308D8A08DD761
:102240006E51D8A4FF0FE824B60FF66E390ED8B041
:10225000010FF76E000ED8B0010FF86E0900F5CF30
:1022600004F00800F5CF05F0880E0426390E05228B
:10227000000E066E000E062204C0F6FF05C0F7FF32
:1022800006C0F8FF0800F5CF02F0036A6E51D8B41B
:1022900068D77353D8A405D00250725DD8A072C11C
:1022A00002F0AFDE0250D8B482D7F5CF00F0B4DE32
:1022B000024E7DD7030E006EAFDE024E78D7020EBF
:1022C0000426000E0522062204C0F6FF05C0F7FF13
:1022D00006C0F8FF0800F5CF00F09EDE024E67D77B
:1022E000006A9ADE024E63D7042A000E05220622F7
:1022F000EBD787DEDBEC1BF0118A0050026E020F79
:10230000006E8ADE030E006E87DE025205E00206D2
:10231000F0EC1BF081DEF9D7F9EC1BF0119A47D7EE
:1023200070DE400EBDEC0CF064DE6EC163FFD1D6F2
:1023300001016E51746F006E70EC0BF04CD774C1DC
:1023400000F06ADE5EDE33D76EC175F144D775C129
:0823500000F062DE56DE2BD71F
:082358008A92939200D000D09C
:102360008A909390948012009380138C8B90949019
:10237000020E446E456A466AABEC1AF00FEC1BF095
:1023800081B00CD08B80020E446E456A466AABEC7D
:102390001AF00FEC1BF081A001D0139C9480120066
:1023A00000008A929392120000008A829392120097
:1023B00000009382120000008A90939012000000A7
:1023C0008A8093901200000093801200006A81B00E
:1023D0000080120000008A82939200D000008A8060
:1023E000939000D000008A92939200D000008A90CF
:1023F0009390F0D700C0DCFF01C0DCFF02C0DCFF1F
:1024000003C0DCFF08C0DCFF00A00ED08A809390E0
:102410008A82939203320232013200328A9293927C
:10242000084E11D000B0F2D78A9093908A8293928E
:1024300003320232013200328A929392084E03D064
:1024400000A0F2D7E3D700009380DDCF08F0DDCF06
:1024500003F0DDCF02F0DDCF01F0DDCF00F01200A0
:1024600008C0DCFF060E086EC5DFDDCF08F01200E5
:1024700000C0DCFF01C0DCFF08C0DCFF0036013615
:102480000090019E100E086EB5DFDDCF08F0DDCFA5
:1024900001F0DDCF00F0120000C0DCFF01C0DCFF66
:1024A00002C0DCFF08C0DCFF0036013602360090B7
:1024B000029E180E086E9EDFDDCF08F0DDCF02F021
:1024C000DDCF01F0DDCF00F0120008C0DCFF09C055
:1024D000DCFF8A9293929380210E096E00008A821B
:1024E0009392D8900332023201320032090681B051
:1024F000038E00D08A929392082EF0D7094E06D010
:10250000D8900332023201320032F8D7DDCF09F021
:10251000DDCF08F0120002C0DCFF03C0DCFF08C002
:10252000DCFF100E086ED1DF013200323F0E0116C3
:10253000DDCF08F0DDCF03F0DDCF02F0120000C0E8
:10254000DCFF01C0DCFF080E016E00BE0CD08A90DB
:1025500093908A829392003600D08A929392014E91
:102560000FD000AEF4D78A8093908A82939200367F
:1025700000D08A929392014E03D000AEE8D7F3D7F1
:1025800000009380DDCF01F0DDCF00F0120000C02D
:10259000DCFF01C0DCFF02C0DCFF03C0DCFF180E63
:1025A000036E02BE0DD08A9093908A829392003679
:1025B000013602368A929392034E10D002AEF3D7C0
:1025C0008A8093908A8293920036013602368A92EC
:1025D0009392034E03D002AEE6D7F2D70000938069
:1025E000DDCF03F0DDCF02F0DDCF01F0DDCF00F075
:1025F000120000C0DCFF01C0DCFF02C0DCFF026A89
:10260000D890003601360236C2DFDDCF02F0DDCFD2
:1026100001F0DDCF00F0120000C0DCFF01C0DCFFE4
:1026200002C0DCFF026A3F0E0116D8900036013668
:10263000AEDFDDCF02F0DDCF01F0DDCF00F0120024
:1026400000C0DCFF01C0DCFF02C0DCFF016A026ADF
:10265000D8900036013602369ADFDDCF02F0DDCFAA
:1026600001F0DDCF00F0120003C0DCFF8A929392EC
:102670009380180E036E8A829392D89000360136AA
:10268000023681B000808A929392032EF4D7DDCF78
:1026900003F0120002C0DCFFE7DF02320132003239
:1026A000DDCF02F0120002C0DCFFDEDF01320032BB
:1026B0003F0E0116DDCF02F0120001C0DCFF02C0A8
:1026C000DCFFD2DF01320032DDCF02F0DDCF01F0DE
:0226D0001200F6
:0E26D20008C0DCFF140E086EFAEC11F0DDCF2C
:1026E00008F0120000C0DCFF01C0DCFF02C0DCFF0C
:1026F00008C0DCFF026AD890003601360236003688
:102700000136023600360136023600360136023610
:10271000140E086EFAEC11F0DDCF08F0DDCF02F0F8
:10272000DDCF01F0DDCF00F0120000C0DCFF01C002
:10273000DCFF08C0DCFF006A040E086EFAEC11F042
:102740000E0E016E0250006E100E086EFAEC11F0C3
:10275000006A040E086EFAEC11F06E0E016E035062
:10276000006E100E086EFAEC11F0DDCF08F0DDCF30
:1027700001F0DDCF00F0120000C0DCFF01C0DCFF83
:10278000800E016E02340E0B011203C000F0AADFAE
:10279000DDCF01F0DDCF00F0120000C0DCFF01C092
:1027A000DCFF900E016E02340E0B011203C000F02C
:1027B00099DFDDCF01F0DDCF00F0120002C0DCFFB9
:1027C00003C0DCFF14AA0CD026502918D8A408D0C6
:1027D00027502A18D8A404D028502B18D8B413D0C6
:1027E000148A2650296E026EF60E036E9EDF275065
:1027F0002A6E026EF70E036E98DF28502B6E026E63
:10280000F80E036E92DFDDCF03F0DDCF02F0120091
:1028100014B810D0D3DF090E006E016A0C0E086EDA
:10282000FAEC11F0080E086E65EC12F0C2EC0DF037
:1028300092EF0FF0070E026E22C103F0AEDF060E1C
:10284000026E22C103F0A9DF24C103F026C002F00A
:102850006CDF26C103F027C002F067DF000E026EB6
:1028600022C103F089DF500E016E28C100F03ADF6B
:10287000500E006EEF0E016E060E026E2ADF006A29
:10288000016A026A26DF020E006E016A0C0E086EF3
:10289000FAEC11F0080E086E65EC12F092EF0FF0F2
:1028A00000C0DCFF01C0DCFF070E026E22C103F096
:1028B00063DF060E026E22C103F06FDFDDCF01F091
:1028C000DDCF00F07BD714B84BD026B005D000C0C8
:1028D0003EF174DFE4EF0FF000C001F03EC100F004
:1028E000026AD890003601360236003601360236CA
:1028F000003601360236003601360236140E086EF6
:102900002204036E26140318D8B40BD00D0E001247
:10291000FAEC11F0020E2926000E2A222B22E4EFF7
:102920000FF00F0E0012FAEC11F0006A030E086EA1
:10293000FAEC11F0D4EC11F0ABEC1AF00FEC1BF048
:10294000D0EC11F0030E446EABEC1AF00FEC1BF060
:10295000006A016A100E086EFAEC11F0E4EF0FF055
:1029600024C103F026C002F0E0DE26C103F027C038
:1029700002F0DBDE28C103F000C002F0D6DE010E5B
:10298000026E22C103F0F8DE006A016A026AA1DE6B
:10299000006A016A026A9DDEABEC1AF0E4EF0FF008
:1029A00000C0DCFF01C0DCFF14AA0AD02A50275C5B
:1029B000D8A006D0D8A40BD02950265CD8B007D018
:1029C000296A2A6A148A160E006E30EC12F027AEBD
:1029D0000CD02ABE0AD0296A800E2A6E006A30EC1A
:1029E00012F0006A016A38EC12F029502618006EC5
:1029F0002A5027180010D8B407D0060E006E30EC0D
:102A000012F0C2EC0DF0F1D7DDCF01F0DDCF00F018
:102A1000120000C0DCFF01C0DCFF02C0DCFF275059
:102A2000016E2650006E14A804D02F50002630509E
:102A3000012214AA1DD029500018026E2A50011834
:102A4000021024E02A500118800B12E12928026E9E
:102A5000000E2A2001180CE10250001809E100C004
:102A600029F001C02AF0060E006E30EC12F00ED0F4
:102A700000C029F001C02AF01D0E006E30EC12F0EB
:102A800026C000F0026A4CEC12F0148ADDCF02F08E
:102A9000DDCF01F0DDCF00F0120082DF040E14B8AC
:102AA000050E006E30EC12F08BEC12F092EF0FF08E
:102AB000B0DF240E006E30EC12F08BEC12F02A50D6
:102AC000800B026E292A000E2A207F0B02102A6E2C
:102AD00092EF0FF065DF0050026E020E14B8030E85
:102AE000006E30EC12F00250006E38EC12F014B8A8
:102AF00010D02204006E26140018D8B40AD0275033
:102B0000245CD8A006D0D8A418D02650235CD8B016
:102B100014D037C100F030EC12F0ABEC1AF014A076
:102B20000CD038C100F00FEC1BF030EC12F0030EAB
:102B3000446E456A466AABEC1AF0E4EF0FF001010F
:102B4000180E376F0A0E386F148027BE02D014A8F3
:102B5000C1D73E0E446E456A466A0101080E376FC2
:102B60001490B8D756DF2ABE32D02204026E261443
:102B700002180EE000C002F0220E006E30EC12F0DF
:102B800002C000F038EC12F0C2EC0DF0E4EF0FF0F0
:102B900000C002F0020E006E30EC12F002C000F035
:102BA00038EC12F0180E006E30EC12F0ABEC1AF0AC
:102BB0000A0E006E0FEC1BF030EC12F0050E446EA6
:102BC000456A466AABEC1AF0149AE4EF0FF000C0C5
:102BD00002F0020E006E30EC12F002C000F038EC91
:102BE00012F0080E006E30EC12F03E0E446E456A94
:0A2BF000466AABEC1AF0E4EF0FF0B8
:062BFA00486A0101000E13
:102C0000526F020E536F010EE8CF00F29C0E546F0C
:102C1000010E556F000EE8CF9CF1B40E566F000EFA
:102C2000576F000EE8CFB4F0120000C0DCFF01C007
:102C3000DCFF05C0DCFF030E056E11EE52F0E6CF9F
:102C4000E9FFE6CFEAFFEF5205E0052EF8D70000D6
:102C50000000FF00DDCF05F000C0E1FF01C0E2FF92
:102C600000C0E6FF01C0E6FF02C0E6FF03C0E6FFCA
:102C700004C0E6FF05C0E6FF06C0E6FF07C0E6FFAA
:102C8000EE2A000E0006015AE55200C0EEFF01C018
:102C9000EEFF00C0EEFF01C0EEFFE1CFEEFFE2CF9E
:102CA000EEFF02C0EEFF03C0EEFFDDCF01F0DDCF8F
:102CB00000F0120008C0DCFF09C0DCFF0AC0DCFF26
:102CC0000BC0DCFF0CC0DCFF0DC0DCFF0EC0DCFF66
:102CD0000FC0DCFF10C0DCFF13D8DDCF10F0DDCF5C
:102CE0000FF0DDCF0EF0DDCF0DF0DDCF0CF0DDCF3E
:102CF0000BF0DDCF0AF0DDCF09F0DDCF08F01200D8
:102D000000C0DCFF01C0DCFF02C0DCFF03C0DCFF51
:102D100004C0DCFF05C0DCFF06C0DCFF07C0DCFF31
:102D2000E9CF00F0EACF01F001EE52F04844E92685
:102D3000EE50EFCFEAFFE96EFC501F0B026EEE6E15
:102D400000C0EEFF01C0EEFFE1CFEEFFE2CFEEFFED
:102D5000D9CFEEFFDACFEEFFFD50EE6EFE50EE6EF5
:102D60000600022EF9D7482A48500208D8A0486A1F
:102D700001EE52F04844E926EE50EFCFEAFFE96E4B
:102D8000EF52F1E0EECF01F0EECF02F0EECF03F024
:102D9000F29EFC6AEECFE1FFEECFE2FFEECFD9FF6D
:102DA000EECFDAFFF28E0144FF0FE926000EEA2291
:102DB0000500ED50FE6EED50FD6E012EF9D702C0FC
:102DC000E9FF03C0EAFFDDCF07F0DDCF06F0DDCF7E
:102DD00005F0DDCF04F0DDCF03F0DDCF02F0DDCF75
:102DE00001F0DDCF00F0120000500208D8A00DD095
:102DF00001EE52F00044E926EE50EFCFEAFFE96E13
:102E0000EF6A0050485CD8B4AED7120001EE52F021
:102E10004844E926EE50EFCFEAFFE96EEF6AA3D708
:102E200000C0DCFF01C0DCFF02C0DCFF26C000F0F8
:102E300027C001F028C002F014A8009014AA0DD0F9
:102E400029502A102B1009E02950001806E12A50B9
:102E5000011803E12B50021822E00FEC1BF000C018
:102E6000DCFF800E006E9FEC12F0DDCF00F000C0A2
:102E700029F001C02AF002C02BF014A806D02F5070
:102E800000263050012231500222D89000360136FF
:102E90000236C7EC12F0148A00D000D00000DDCF5B
:102EA00002F0DDCF01F0DDCF00F0120014B819D030
:102EB00026A017D014AA15D001013DA112D026C01A
:102EC000E8FF3C19FE0B0DE127C0E8FF3D1909E1C1
:102ED00028C0E8FF3E1905E13CC100F0016A92EF0D
:102EE0000FF09EDF0FEC1BF000C0DCFFFE0E006E4B
:102EF0009FEC12F0DDCF00F000D000D000D000D069
:102F000034EC13F014B81DD001010232013200324A
:102F100001C03CF13D6B3D8129C039F12AC03AF135
:102F20002BC03BF1020E2926000E2A222B2226B0AE
:102F300003D0016A92EF0FF001C000F0016A92EF36
:102F40000FF001320032016A292A000E2A222B22B8
:102F500001013D6B92EF0FF014B842D026B00DD0B6
:102F600000C03CF126C039F127C03AF128C03BF13E
:102F700001013D6B3D83E4EF0FF052DF0FEC1BF0DE
:102F800000C0DCFFE00E006E9FEC12F0DDCF00F021
:102F900000C001F0006801013DA312D026C002F07C
:102FA00039510218FE0B0CE127C002F03A51021809
:102FB00007E128C002F03B51021802E13CC100F0D9
:102FC000020E2926000E2A222B22026AD8900036F1
:102FD00001360236C7EC12F0ABEC1AF0E4EF0FF05A
:102FE0001FDF0FEC1BF000C0DCFFE00E006E9FEC5B
:102FF00012F0DDCF00F0292A000E2A222B22016ACE
:10300000026AD890003601360236C7EC12F0ABECFB
:063010001AF0E4EF0FF0DE
:0A30160000C0DCFF01C0DCFF14AABB
:1030200006D02950261803E12A50271819E00FEC82
:103030001BF000C036F1800E006E9FEC12F036C11E
:1030400000F000D000D000D000D000D0000026500A
:10305000296E006E27502A6E016EF9EC12F0148A68
:10306000DDCF01F0DDCF00F01200D5DF0FEC1BF05B
:1030700000C036F1FE0E006E9FEC12F036C100F07B
:1030800000D000D000D000D000D0000053EC13F0EE
:10309000C2EC0DF092EF0FF0BEDF2650235C2750FC
:1030A0002458D8A03FD02204026E2614021816E03D
:1030B0000FEC1BF000C036F1020E006E9FEC12F018
:1030C00036C100F000D000D000D000D000D0000009
:1030D0000CEC13F0C2EC0DF0E4EF0FF00FEC1BF072
:1030E00000C036F1000E006E9FEC12F036C100F009
:1030F00000D000D000D000D000D000000CEC13F0C5
:1031000000C036F1E00E006E9FEC12F036C100F008
:1031100000D000D000D000D000D00000ABEC1AF0FE
:10312000E4EF0FF00FEC1BF000C036F1000E006E64
:103130009FEC12F036C100F000D000D000D000D0DB
:1031400000D000000CEC13F000C036F1E00E006E71
:103150009FEC12F036C100F000D000D000D000D0BB
:1031600000D000004A0E446E456A466AABEC1AF085
:04317000E4EF0FF089
:0C31740000C0DCFF01C0DCFF14AA0AD080
:103180002A50275CD8A006D0D8A408D02950265CA5
:10319000D8B004D0C8EC0DF00FEC1BF027AA0BD070
:1031A0002ABA09D0296A200E2A6E006A30EC12F081
:1031B000016A38EC12F029502618006E2A502718A0
:1031C0000010D8B407D0060E006E30EC12F0C2EC3E
:1031D0000DF0F1D7DDCF01F0DDCF00F01200CADF36
:1031E000040E14B8050E006E30EC12F08BEC12F0E9
:1031F00092EF0FF0BFDF0050026E020E14B8030E04
:10320000006E30EC12F00250006E38EC12F014B880
:1032100010D02204006E26140018D8B40AD027500B
:10322000245CD8A006D0D8A418D02650235CD8B0EF
:1032300014D0180E14B0080E006E30EC12F0ABEC87
:103240001AF014A20AD0170E14B40E0E14B60A0EF9
:10325000006E0FEC1BF030EC12F0E4EF0FF0148076
:10326000C9D714822650070AD8A4C4D72750200AE9
:10327000D8A4C0D714801492610E446E456ABAD7A0
:10328000148014821484B6D71480B4D71482B2D7B1
:0632900014821486AFD782
:0A32960013A415D0948E0001916B73
:1032A000010E926F936FAB6A240EAC6E080EB86E6F
:1032B000700EAF6E020EB06E900EAB6E9D8A080E51
:1032C000D56EF2941200AB500001496EAE504A6EBA
:1032D000ABA202D0AB98AB8849B40ED0200E915D62
:1032E000D8B00AD000EE93F092514AC0EBFF912B78
:1032F000200E924F926F128E4BEF00F0F29E000163
:10330000200E915DD8B00AD000EE93F0925100C02B
:10331000EBFF912B200E924F926F128EF28E1200C5
:1033200012AEFED70001F29E00EE93F09351EBCF68
:1033300000F09107200E934F936F916701D0129E7A
:10334000F28E12009EB805D09EA8FED700C0ADFF39
:1033500017D0ACB20AD0F29EF2B404D000C0ADFFD8
:10336000F28E0ED0F28EACA2FED7D59EEE0ED76EA8
:103370006E0ED66EF294F29E00C0ADFFD58EF28E28
:02338000120039
:0E33820000C0DCFFC26AC16A060EC06E9E9CCF
:103390009D8C010EC26E01EE00F0080E006EEE6A0A
:1033A000002EFDD7DDCF00F01200166AEECF17F029
:1033B000EECF18F0196AEECF1AF0EDCF1BF0D890CF
:1033C0001832173216321B321A32193218321732AB
:1033D00016321B321A3219321832173216321B3299
:1033E0001A3219321950165E1A50175A1B50185AB1
:1033F0001750EE261850ED2212009E9C01EE00F0B0
:10340000C3CFEEFFC4CFEDFFD0DFCFDFCEDF4BEF7A
:1034100000F002C0DCFF03C0DCFF04C0DCFF05C01D
:10342000DCFF06C0DCFF07C0DCFFF29E06C100F037
:1034300007C101F0F28EE70E046E0C0E056E066AEF
:10344000076A026A036A2CEC1CF002C000F003C099
:1034500001F0DDCF07F0DDCF06F0DDCF05F0DDCFE9
:0C34600004F0DDCF03F0DDCF02F012001D
:04346C0000C0DCFFC1
:1034700001C0DCFF02C0DCFF03C0DCFF26C002F09D
:1034800027C003F014A804D02F5002263050032286
:1034900002502C18006E03502D18001202E114BCCB
:1034A000149A14BA06D00FEC1BF0C8EC0DF00FEC18
:1034B0001BF02C5002162D50031629500218D8A4C8
:1034C00004D02A500318D8B40CD0060E006E30EC8D
:1034D00012F0C2EC0DF02C5029162D502A162B6A32
:1034E000ECD7DDCF03F0DDCF02F0DDCF01F0DDCF93
:1034F00000F01200BBDF54EF0FF0B8DF040E006ED7
:1035000030EC12F08BEC12F092EF0FF0AFDF00C056
:1035100002F0020E006E30EC12F002C000F038EC47
:1035200012F0080E006E30EC12F01FC044F0456A35
:10353000ABEC1AF00FEC1BF00E0E006E30EC12F03C
:0E354000020E446E456AABEC1AF0E4EF0FF099
:02354E00476ACA
:1035500001014C6B1200F29E44C03AF045C03BF0B2
:1035600046C03CF01294F28E476A01014C6B120087
:103570000101010E4C6F02C0DCFF03C0DCFF013013
:10358000036E0030026E0332023203320232033223
:10359000023203320232070E03160350000807E31B
:1035A00003E1640E025C03E2640E026E036A0250E1
:1035B000005C4D6F035001584E6F02E24D6B4E6B35
:1035C000025000244F6F03500120506F02E34F69F7
:1035D0005069DDCF03F0DDCF02F01200010E476E1F
:1035E00001014D51005C4E51015809E3020E476E36
:1035F00000504F5D0150505902E3476A1284120097
:1036000000C0DCFF01C0DCFF01014C5103E009EC0C
:103610001AF0E4DFDDCF01F0DDCF00F01200F0DFC3
:0636200012A4FDD7120008
:0A3626000101496B1200190E3E6EFF
:103630001200190E406E12000101010E4919D8B492
:103640000DD0010E496F110E366EC80E376EC80EC2
:10365000386E010EF29E396E1296F28E1200010142
:10366000030E4919D8B40DD0030E496F480E366EBB
:10367000320E376E320E386E010EF29E396E129691
:10368000F28E12000101020E4919D8B40DD0020EBB
:10369000496F120E366E190E376E190E386E010E06
:1036A000F29E396E1296F28E12000101040E491933
:1036B000D8B40DD0040E496F8F0E366E640E376E7F
:1036C000640E386E010EF29E396E1296F28E120062
:1036D00012B002D012A202D0190E3F6E4052D8B4DE
:1036E00002D0E3DF0BD03F52D8B402D0B8DF06D00F
:0E36F0003E52D8B402D0C6DF01D09EDF1200D9
:0236FE0004D8EE
:1037000001019B6B02D81200120001019B51010ABA
:103710000BE0010E9B6F8A968A94F20E446E456A06
:10372000466AABEC1AF01290120000C0DCFF01C038
:10373000DCFF01019B51020A19E0020E9B6F8A9483
:10374000F20E446E456A466AABEC1AF00FEC1BF0C1
:103750008A865A0E446E020E456E466AABEC1AF02B
:10376000640E006E016AB8EC1AF01290DDCF01F021
:10377000DDCF00F0120000C0DCFF01C0DCFF010162
:103780009B51030A0CE0030E9B6F8A968A84128079
:103790005A0E446E020E456E466AABEC1AF0DDCF4F
:1037A00001F0DDCF00F0120012008A948A96129088
:0437B00001019B6B0D
:0C37B400120001C0DCFF02C0DCFF016A53
:1037C000026AE1EC1CF0E4EC1CF000505008D8A0B8
:1037D000006A00C04BF1DDCF02F0DDCF01F0120036
:1037E000006A01014B53D8B403D04B07E4EC1CF042
:1037F0001200120001C0DCFF02C0DCFF010E016EEE
:10380000026AE1EC1CF00101500E4B6FDDCF02F0BB
:10381000DDCF01F0120001014B53D8B403D04B07A8
:10382000F0EC1CF0120000C0DCFF01C0DCFF02C0A5
:10383000DCFF016A026AE1EC1CF001014B51500807
:10384000006EF0EC1CF00BEC1DF0DDCF02F0DDCFD4
:0838500001F0DDCF00F01200D1
:0838580004C0DCFF05C0DCFF29
:1038600006C0DCFF07C0DCFF08C0DCFF09C0DCFFCE
:103870000AC0DCFF0BC0DCFF0050086E0150096E6F
:1038800002500A6E03500B6E006A016A026A036AF4
:10389000085009100A100B10D8B460EF1CF008A0F3
:1038A00054EF1CF0B4EC1DF0D8900B320A32093200
:1038B0000832D890043605360636073648EF1CF035
:1038C000DDCF0BF0DDCF0AF0DDCF09F0DDCF08F062
:1038D000DDCF07F0DDCF06F0DDCF05F0DDCF04F062
:0238E0001200D4
:0E38E200800EF16EF06A9D6AA06AA36A9E6A6B
:1038F000A16AA46A9F6AA26AA56AD09E116A126A26
:10390000136A146A156AC5EC1DF0A1EC1DF0FDECFC
:1039100015F0DEEC1CF00FEC1DF0DAEC1BF04BECBC
:1039200019F050EC00F03CEC1DF07FEC1BF0ACEC1F
:1039300011F076EC0DF0C1EC19F013EC1BF0A7ECD4
:103940001AF0E5EC05F04AEC0AF0EFEC0FF057EC5A
:063950001DF0C1EF1DF0A7
:0A39560012011001FF00FF08C01667
:10396000C8052200020300010902200001010080B5
:10397000FA0904000002FF00FF00070501024000F1
:103980000107058102400001040309041403456D89
:1039900062656420496E633C034C50726F67206C13
:1039A0006F7720636F7374205049432070726F6784
:0C39B00072616D6D6572000004000F0074
:0439BC000101516B49
:1039C000120001C051F11200A6B2E4EF1CF051C187
:1039D000A9FFA66AA6800101512BA8CF00F0120012
:1039E00001C0DCFFA6B2F2EF1CF051C1A9FF00C07C
:1039F000A8FFA66AA684F2CF01F0550EF29EA76E2C
:103A0000AA0EA76EA68201BEF28EA6940101512BCA
:0E3A1000DDCF01F01200A6B20BEF1DF0120088
:023A1E0000C0E6
:103A2000DCFF08D813940050FF0AD8A41384DDCF1C
:103A300000F0120001C0DCFF02C0DCFF510E016E7D
:103A4000026AE1EC1CF0E4EC1CF0DDCF02F0DDCF0B
:103A500001F0120001C0DCFF02C0DCFF510E016E5C
:103A6000026AE1EC1CF0F0EC1CF00BEC1DF0DDCF79
:083A700002F0DDCF01F01200AD
:083A780001D81200938812929C
:103A800012008A989398129212008A889398128250
:103A900012001200F3DF1200F29E8A8800D000D0DC
:0E3AA00000D000D000D000D08A98F28E120024
:023AAE00366A76
:103AB000376A386A396A3A6A3B6A3C6A12843D6AF4
:103AC0003E6A3F6A406A3C0E416E780E426E436A1F
:103AD000630EBB6E4C0EBA6EBC6A9E929D82F28CD7
:043AE000F28E120050
:0C3AE40001018C0D000000000100010138
:103AF00001010101010109000000000101010101B2
:103B0000010F00000000010101010101010101019B
:053B10000101012A2A59
:0A3B16003DC04AF180EC16F011A644
:103B200002D011961386ADEC00F068EC1BF03D500E
:103B300001014A1905E04A2B0A0E006E1EEC0DF039
:023B4000ECD7C0
:0E3B4200C26AFF0EC16E0F015B6B5C6B5D6BA8
:103B5000F18E896A010E926E856A8A6A200E936ED2
:083B60008B6A946A846A12006A
:083B680008C0DCFF0450002638
:103B7000055001220650022207500322DDCF08F033
:023B8000120031
:083B820058EC0AF08BEF1DF076
:063B8A0020EE5FF01200C6
:020000040030CA
:0E000000E632E6FCFFFF9FFFFFFFFFDFFFFF82
:0200000400F00A
:06000000054C50726F6711
:00000001FF
